:020000040800F2
:1000000000000320153B000899220008A7220008E1
:10001000AD220008B3220008B92200080000000049
:10002000000000000000000000000000BF220008E7
:10003000CD22000800000000DB220008E9220008B1
:10004000693B0008693B0008693B0008772300080A
:10005000693B0008693B0008693B0008693B0008F0
:10006000693B0008693B000869230008693B0008F8
:10007000693B0008693B0008F5220008693B00085D
:10008000693B0008693B0008693B0008693B0008C0
:10009000693B0008693B0008693B0008693B0008B0
:1000A000693B0008693B0008693B0008693B0008A0
:1000B000693B0008693B0008693B0008693B000890
:1000C000693B0008693B0008693B0008693B000880
:1000D000092300081D230008693B0008693B00084C
:1000E000693B0008693B0008693B0008693B000860
:1000F000312300083D23000849230008693B00081C
:10010000693B0008693B0008693B0008693B00083F
:10011000693B0008693B0008693B0008693B00082F
:10012000693B0008693B000855230008693B00084B
:0C013000693B0008693B0008693B0008BF
:1001400010B5054C237833B9044B13B10448AFF311
:1001500000800123237010BD1C020020000000005D
:10016000FCBA000808B5034B1BB103490348AFF3C1
:10017000008008BD0000000020020020FCBA00083A
:10018000034613F8012B002AFBD1181A01387047D7
:1001900001F0FF01102A2BDB10F0070F08D010F838
:1001A000013B013A8B422DD010F0070F42B3F6D13C
:1001B000F0B441EA012141EA014122F007047FF055
:1001C00000070023F0E80256083C85EA010586EAAC
:1001D000010685FA47F5A3FA87F586FA47F6A5FAE8
:1001E00087F68EB9EED1F0BC01F0FF0102F00702F4
:1001F00032B110F8013B013A83EA010313B1F8D19F
:100200000020704701387047002D06BF354603387F
:10021000073815F0010F07D1013015F4807F02BFB8
:10022000013015F4C03F0130F0BC0138704700BF09
:1002300053B94AB9002908BF00281CBF4FF0FF314D
:100240004FF0FF3000F06EB9ADF1080C6DE904CE4F
:1002500000F006F8DDF804E0DDE9022304B07047A1
:100260002DE9F047089D04468C46002B40F0838022
:100270008A42174647D9B2FA82F242B1C2F120004F
:1002800024FA00F09140974040EA010C94404FEA74
:100290001748230CBCFBF8F61FFA87FE08FB16C1B3
:1002A00043EA014306FB0EF1994209D9FB1806F116
:1002B000FF3080F01981994240F21681023E3B44A2
:1002C0005B1AA4B2B3FBF8F008FB103344EA034412
:1002D00000FB0EFEA64509D93C1900F1FF3380F062
:1002E0000581A64540F2028102383C4440EA0640BE
:1002F000A4EB0E0400261DB1D4400023C5E9004341
:100300003146BDE8F08702B9FFDEB2FA82F2002A78
:1003100050D1CB1B4FEA174E1FFA87F80126B3FBCB
:10032000FEFC210C0EFB1C3341EA034108FB0CF3DD
:100330008B4207D979180CF1FF3002D28B4200F2C0
:10034000E9808446C91AA3B2B1FBFEF00EFB10117E
:1003500043EA014408FB00F8A04507D93C1900F125
:10036000FF3302D2A04500F2D9801846A4EB08045E
:1003700040EA0C40BFE78B4209D9002D00F0B18064
:100380000026C5E9000130463146BDE8F087B3FAE2
:1003900083F6002E4AD18B4202D3824200F2B8800B
:1003A000841A61EB030101208C46002DA8D0C5E919
:1003B000004CA5E7C2F1200320FA03F6974001FAAA
:1003C00002F04FEA174ED9403043030CB1FBFEF662
:1003D0001FFA87F80EFB161143EA014306FB08F1EA
:1003E000994204FA02F409D9FB1806F1FF3C80F0A7
:1003F0008D80994240F28A80023E3B445B1A81B272
:10040000B3FBFEF00EFB103341EA034100FB08F39F
:100410008B4207D9791800F1FF3C73D28B4271D916
:1004200002383944CB1A40EA064678E7C6F1200C78
:1004300003FA06F422FA0CF31C4320FA0CF701FA33
:1004400006F34FEA144E21FA0CF11F433B0CB1FBAB
:10045000FEF91FFA84F80EFB191143EA014109FB6A
:1004600008FA8A4502FA06F200FA06F308D961187A
:1004700009F1FF3048D28A4546D9A9F10209214441
:10048000A1EB0A01BFB2B1FBFEF00EFB101147EA6F
:10049000014700FB08F8B84507D9E71900F1FF311B
:1004A0002ED2B8452CD90238274440EA0940A7EBA0
:1004B0000807A0FB02894F45C64649461AD317D004
:1004C0005DB1B3EB0E0267EB010707FA0CFCF240DB
:1004D0004CEA0202F740C5E9002700263146BDE894
:1004E000F0872E4628460BE70646E9E61846FDE665
:1004F0004345E5D2B8EB020E69EB04010138DFE7B2
:100500000846D2E760468DE78146B9E7664675E75B
:1005100030464AE7ACF1020C394413E702383C4458
:1005200024E700BF704700BF80B483B000AF78609D
:10053000064BD3F8902005497B681343C1F89030EF
:1005400000BF0C37BD465DF8047B704700080058BB
:1005500080B485B000AF78604FF0B043DA6C4FF0F4
:10056000B0417B681343CB644FF0B043DA6C7B68D7
:100570001340FB60FB6800BF1437BD465DF8047B89
:10058000704780B485B000AF78604FF0B043D3F8C7
:100590004C214FF0B0417B681343C1F84C314FF010
:1005A000B043D3F84C217B681340FB60FB6800BF6D
:1005B0001437BD465DF8047B704780B500AF03F08B
:1005C000D5FC03F0D9FC4FF48030FFF7ADFF08F005
:1005D000CFFB00F021F800F0C3F800BF80BD0000A1
:1005E000B0B588B000AF0B4B3C1D1D460FCD0FC4FE
:1005F00095E8070003C422800234130C237009F02D
:1006000029FF3B1D184608F026FE00BF2037BD46D7
:10061000B0BD00BF14BB000880B588B000AF3B1D63
:1006200000221A605A609A60DA601A610023BB8364
:1006300000237B8300233B830023FB7738E0FB7F91
:10064000444ADB0013449B79002B2BD0FB7F414AAB
:1006500052F83330404A93421BD03F4A934223D84A
:10066000B3F1904F03D03D4A934209D01CE0FB7F89
:10067000384ADB0013449A88BB8B1343BB8314E0D6
:10068000FB7F344ADB0013449A887B8B13437B83C4
:100690000BE0FB7F2F4ADB0013449A883B8B13430C
:1006A0003B8302E000BF00E000BFFB7F0133FB772C
:1006B000FB7F212BC3D90023FB600123BB600323F5
:1006C0003B61BB8B002B14D0BB8B7B600120FFF701
:1006D0003FFF0120FFF755FF3B1D19464FF09040AB
:1006E00004F05CF9BB8B002219464FF0904004F0F7
:1006F000C5FA7B8B002B12D07B8B7B600220FFF72F
:1007000027FF0220FFF73DFF3B1D1946134804F069
:1007100045F97B8B00221946104804F0AFFA3B8B59
:10072000002B13D03B8B7B600420FFF711FF0420CC
:10073000FFF727FF3B1D1946074804F02FF93B8BB5
:1007400000221946044804F099FA00BF00BF203780
:10075000BD4680BD98C0000800080048000400485D
:1007600080B400AF00BFBD465DF8047B704780B524
:1007700000AF01F07FFA00BF80BD80B584B000AF4C
:10078000F8600B467A607B817A897B68F968002083
:1007900000F0BCFF00BF1037BD4680BD80B483B001
:1007A00000AF7860074BD3F8803023F0070205498B
:1007B0007B681343C1F8803000BF0C37BD465DF83D
:1007C000047B70470004005880B483B000AF7860A9
:1007D0004FF0B0439B6823F400424FF0B0417B6878
:1007E00013438B6000BF0C37BD465DF8047B704738
:1007F00080B500AF00F014F80849002000F004FDB7
:10080000FFF7DBFE0121012009F0C2FE00F067F8CE
:1008100000F075F800F012F800BF80BD54150020FC
:1008200080B500AF4FF40040FFF7CEFF09F09EFE09
:100830000420FFF7B3FF00BF80BD000080B588B083
:1008400000AF09F051FC114A0021402009F0B4FF2B
:100850000F4B3B600F4B7B603B4619460E4808F040
:1008600011FD0E4BBB600E4BFB600E4B3B6140F22B
:100870003C537B6107F10803184609F077FD09F046
:100880002DFC00BF2037BD4680BD00BFBD920008D3
:1008900024070320A9080008BF0800083C0903201A
:1008A00030080320E801032080B483B000AF034682
:1008B000FB7100BF0C37BD465DF8047B704780B507
:1008C00082B000AF7860FFF78BFE01F005FE0021DB
:1008D000012009F05DFE00BF0837BD4680BD80B530
:1008E00000AF002003F05AF9012003F057F902206D
:1008F00003F054F9012003F08BF900BF80BD80B5EF
:1009000000AF0121002003F0B7F900BF80BD80B423
:1009100000AF00BFBD465DF8047B704780B582B074
:1009200000AF786039604FF0FF3009F061FE00BF22
:100930000837BD4680BD80B582B000AF7860002129
:10094000402009F05BFF00BF0837BD4680BD80B581
:1009500082B000AF7860022009F0BCFF00BF08370A
:10096000BD4680BD80B582B000AF7860022009F03E
:10097000D1FF00BF0837BD4680BD80B582B000AF53
:100980000346FB80FB88102B06D0102B0DDC012BBF
:1009900005D0022B06D008E001F0A2FF06E001F02E
:1009A000AFFF03E001F0B3FF00E000BF00BF083776
:1009B000BD4680BD80B483B000AF7860064BD3F8ED
:1009C000802005497B681343C1F8803000BF0C3795
:1009D000BD465DF8047B70470008005880B483B0C2
:1009E00000AF7860054B1A6804497B6813430B60BD
:1009F00000BF0C37BD465DF8047B70470008005807
:100A000080B483B000AF0D4B9B6A9BB27B600B4BF5
:100A10009B6A9BB23B6005E03B687B60074B9B6A2F
:100A20009BB23B607A683B689A42F5D13B681846B6
:100A30000C37BD465DF8047B704700BF00280040BE
:100A400080B485B000AF03460A46FB711346BB7104
:100A5000BA791D4913465B001344DB000B44153380
:100A60001B78FB73FB7B062B09D0FA7B16491346D8
:100A70005B001344DB000B441433FA791A70FA79E3
:100A8000114913465B001344DB000B441533FA7B1A
:100A90001A70FA790C4913465B001344DB000B44CF
:100AA0001433BA791A70BA79074913465B001344B4
:100AB000DB000B441533FA791A7000BF1437BD46BA
:100AC0005DF8047B704700BF9400002080B485B0BF
:100AD00000AF03460A46FB711346BB71294B1B78D6
:100AE000DBB2BA799A4232D0BA79274913465B0011
:100AF0001344DB000B4414331B78FB73FA7B22494D
:100B000013465B001344DB000B441533FA791A706B
:100B1000FA791D4913465B001344DB000B4415337F
:100B2000BA791A70FA79184913465B001344DB004E
:100B30000B441433FA7B1A70BA79134913465B00DD
:100B40001344DB000B441433FA791A7014E0FA7979
:100B50000D4913465B001344DB000B441533BA798F
:100B60001A70BA79084913465B001344DB000B4442
:100B70001433FA791A7000BF1437BD465DF8047B50
:100B8000704700BF240100209400002080B584B08D
:100B900000AF0346FB714E4B1B78DBB2062B18D11E
:100BA0004B4B1B78DAB24B4B1A70494AFB791370E6
:100BB000FA79494913465B001344DB000B441533B3
:100BC00006221A70454B4FF0FF321A600023FB815A
:100BD00078E000F009F90346FB81FA793E491346B3
:100BE0005B001344DB000B4408331968FB89FA7976
:100BF0001944394813465B001344DB0003440833AF
:100C00001960FA79344913465B001344DB000B4446
:100C100008331B68BB602E4B1B78DBB219462E4A8B
:100C20000B465B000B44DB00134408331B68BA68B7
:100C30009A4237D3264B1B787B737A7B264913461F
:100C40005B001344DB000B4415331B783B7313E04C
:100C50007A7B214913465B001344DB000B441533B8
:100C60001B787B737A7B1C4913465B001344DB00C3
:100C70000B4415331B783B733B7B062B0BD03A7B25
:100C8000154913465B001344DB000B4408331B6813
:100C9000BA689A42DCD27A7BFB7911461846FFF794
:100CA000CFFE0FE00A4B1B78DAB2FB7911461846EB
:100CB000FFF70CFF064B1B78DAB2064B1A70044A9A
:100CC000FB791370FB8918461037BD4680BD00BF05
:100CD000240100202501002094000020280100208C
:100CE00080B485B000AF03460A46FB711346BB7162
:100CF000394B1B78DBB2FA799A4211D1364B1B780B
:100D0000DAB2364B1A70FA79354913465B00134450
:100D1000DB000B4415331B78DAB22F4B1A703EE020
:100D2000FA792F4913465B001344DB000B4414335C
:100D30001B78FB73FA792A4913465B001344DB00E6
:100D40000B4415331B78BB73F979FA7B24480B46A7
:100D50005B000B44DB00034415331B78D8B22049F9
:100D600013465B001344DB000B44153302461A7034
:100D7000BB7B062B13D0F979BA7B19480B465B0075
:100D80000B44DB00034414331B78D8B214491346D8
:100D90005B001344DB000B44143302461A70FA79EB
:100DA0000F4913465B001344DB000B440C33012254
:100DB0001A70094B1B78DBB2062B07D1BB79002BCD
:100DC00004D1084B4FF0FF321A6000BF00BF143748
:100DD000BD465DF8047B70472401002025010020FA
:100DE000940000202801002080B582B000AF1A4B8B
:100DF0001B68B3F1FF3F26D0FFF702FE7860164B69
:100E00001B687A689A4205D8134B1A687B68D31A14
:100E10007B600AE0114B1B881A467B68D31A3B6043
:100E20000D4B1B683A6813447B600D4B1B781A46C8
:100E30007B6802FB03F37B600A4B1B781A467B68D6
:100E4000D3407B6001E000237B607B689BB2184647
:100E50000837BD4680BD00BF280100203E020020AB
:100E60003D0200203C02002080B582B000AF034666
:100E7000FB80FB88002B08D1FFF7C2FD0346244A04
:100E80001360032003F0FBF93EE0FB88012B03D83D
:100E9000204B1B78012B02D0FB88013BFB8000BF5D
:100EA0001D4B1B681B68DB6803F00403002BF7D0A5
:100EB000194B1B681B68DB68DAB2174B1B681B6891
:100EC00062F49062DA60154B4FF40022DA6003207E
:100ED00003F0E3F9124B5B691B0C1B04FA88104901
:100EE00013434B61FFF78CFD0346094A13600A4B1D
:100EF0001B681B689A68084B1B681B6842F4806279
:100F00009A60AFF3008000BF0837BD4680BD00BFC8
:100F1000280100203C020020380200200008005870
:100F20000028004080B584B000AF474B9B6803F4B5
:100F30008063B3F5806F08D100BF444B1B681B680A
:100F4000DB6803F00403002BF7D1404B1B681B68E0
:100F50009A683E4B1B681B6822F480629A603C4B87
:100F60001B78FB73FA7B3B4913465B001344DB00A1
:100F70000B4408331B68BB60FFF736FF0346FB805A
:100F8000FB88BA689A4205D20023BB81324B01220A
:100F90001A704DE0FB88314A128892B213441A4607
:100FA000BB68934206D92D4B1B88BB812A4B00227C
:100FB0001A703DE0BB689AB2FB88D31ABB81264BFE
:100FC00001221A7034E0FA7B224913465B00134475
:100FD000DB000B4408331A68FB889A420AD2FA7B7A
:100FE0001C4913465B001344DB000B44083300220A
:100FF0001A6013E0FA7B174913465B001344DB00C9
:101000000B4408331968FB88FA7BC91A1148134648
:101010005B001344DB00034408331960FA7B0D497D
:1010200013465B001344DB000B4415331B78FB7342
:10103000FB7B062BC7D1BB891846FFF715FF00BF06
:101040001037BD4680BD00BF002800403802002098
:1010500024010020940000202C01002040020020E8
:1010600080B58AB000AFEFF310837B617B697B6250
:1010700072B600BF5F4B1B681B68CA225A625D4B89
:101080001B681B6853225A625A4B1B681B689A687C
:10109000584B1B681B6822F480629A60564B1B7881
:1010A00087F8233097F82320544913465B001344F4
:1010B000DB000B440C331B78DBB2022B72D197F8A8
:1010C00023204E4913465B001344DB000B441B688E
:1010D000FB6197F82320494913465B001344DB006A
:1010E0000B4410331B68BB61454B1B78DBB2002BF4
:1010F00050D097F82320414913465B001344DB008E
:101100000B440D331B78DBB2012B26D197F823302B
:1011100001211846FFF7E4FD7B6A3B613B6983F3DD
:10112000108800BF97F82320344913465B0013440E
:10113000DB000B4404331A6897F823301146184635
:1011400000F04EFA2B4B1B681B68CA225A62294BCF
:101150001B681B6853225A6214E07B6AFB60FB68C1
:1011600083F3108800BF97F82330184600F0ACF9DD
:10117000204B1B681B68CA225A621E4B1B681B68E7
:1011800053225A6297F82330FA691946B86900F079
:10119000AFFA25E0FFF7C6FE7B6ABB60BB6883F34E
:1011A00010881DE000BF134B1B681B68DB6803F051
:1011B0000403002BF7D00F4B1B681B68DB68DAB207
:1011C0000C4B1B681B6862F49062DA600D4B4FF4A5
:1011D0000022DA607B6A7B607B6883F3108800BF43
:1011E000044B1B681B68FF225A6200BF2837BD46AC
:1011F00080BD00BF380200202401002094000020A0
:101200002C0100200008005880B588B000AF0346CC
:101210003960FB71644A3B681360634B1B681B6851
:10122000CA225A62604B1B681B6853225A625F4B8A
:101230009B685E4A43F0200393605C4B9B68DBB283
:1012400003F00703DBB2C3F10403DAB2584B1A70A0
:10125000564B1B6903F4FE034FF4FE023A613A69F0
:1012600092FAA2F2FA60FA687A617A69002A01D1E8
:10127000202203E07A69B2FA82F2D2B2D340DBB222
:101280000133DAB24B4B1A70484B1B699BB2C3F364
:101290000E039BB201339AB2474B1A80464B1B8810
:1012A000013B444A127802FB03F3A3F5A073404AC2
:1012B0001278D340BB61BB694FF6FE72934204D9EA
:1012C0003E4B4FF6FF721A8003E0BB699AB23B4B6C
:1012D0001A804FF40020FFF781FB4FF40020FFF746
:1012E00069FBFB79002B43D1354B01221A70354B3A
:1012F0004FF0FF321A600023FB770CE0FA7F32498F
:1013000013465B001344DB000B440C3300221A70BD
:10131000FB7F0133FB77FB7F052BEFD92B4B06229D
:101320001A70214B1B681B689A681F4B1B681B684F
:1013300022F480629A601C4B1B681B68DB68DAB27F
:10134000194B1B681B6862F49062DA60204B4FF403
:101350000022DA60032002F0A0FF134B1B681B6819
:101360009A68114B1B681B6842F480429A600AE03D
:101370000D4B1B681B68DB6803F48063002B02D0F5
:10138000032002F07CFF084B1B681B68FF225A6297
:1013900000220321032002F030FF032002F047FF68
:1013A00000BF2037BD4680BD380200200028004025
:1013B0003C0200203D0200203E02002040020020AE
:1013C0002C0100202801002094000020240100208E
:1013D0000008005880B48BB000AFF860B9603B6083
:1013E0001346FB71002387F82630EFF31083FB616F
:1013F000FB693B6272B600BF04E097F82630013308
:1014000087F8263097F82630052B0CD897F8262039
:101410002C4913465B001344DB000B440C331B7850
:10142000DBB2002BE9D197F82630062B38D097F89D
:101430002620244913465B001344DB000B440C3385
:1014400001221A703B6ABB61BB6983F3108800BF3D
:1014500097F826201B4913465B001344DB000B441E
:101460001033FA681A6097F82620164913465B0075
:101470001344DB000B440D33FA791A7097F82620D9
:10148000104913465B001344DB000B443A681A60B2
:10149000BB6897F826201A70002387F8273008E0E9
:1014A0003B6A7B617B6983F3108800BF012387F867
:1014B000273097F8273018462C37BD465DF8047B57
:1014C000704700BF9400002080B586B000AF03468F
:1014D000FB71EFF31083FB60FB687B6172B600BFAA
:1014E000032002F0B2FE384B1B681B68CA225A6206
:1014F000354B1B681B6853225A62FA7933491346ED
:101500005B001344DB000B440C331B78DBB2022B73
:1015100048D1FB7900211846FFF7E2FB2C4B1B78E2
:10152000FB74FB7C062B35D12A4B9B6803F480634C
:10153000B3F5806F08D100BF234B1B681B68DB68C5
:1015400003F00403002BF7D11F4B1B681B689A683C
:101550001D4B1B681B6822F480629A6000BF1A4B07
:101560001B681B68DB6803F00403002BF7D0164BE5
:101570001B681B68DB68DAB2134B1B681B6862F4DC
:101580009062DA60144B4FF40022DA60032002F01C
:1015900084FE07E0114B1B78DBB2FA7C9A4201D043
:1015A000FFF7C0FC084B1B681B68FF225A62032030
:1015B00002F03DFE7B69BB60BB6883F3108800BF0F
:1015C00000BF1837BD4680BD3802002094000020BF
:1015D00024010020002800400008005825010020B8
:1015E00080B586B000AF03463960FB71FA793C499B
:1015F00013465B001344DB000B440C331B78DBB257
:10160000022B03D1FB791846FFF75EFFEFF310833F
:10161000FB60FB687B6172B600BF032002F015FE21
:10162000304B1B681B68CA225A622E4B1B681B6812
:1016300053225A62FA792A4913465B001344DB00AD
:101640000B440C3302221A70FA79254913465B00C9
:101650001344DB000B4408333A681A60FA792049D6
:1016600013465B001344DB000B4404333A681A60F2
:10167000FB791846FFF78AFA03467B821A4B1B78E0
:101680007B741A4B1B78DBB27A7C9A4202D0FFF74C
:1016900049FC13E0FA79124913465B001344DB005E
:1016A0000B44083319687B8AFA79C91A0C48134627
:1016B0005B001344DB00034408331960094B1B68CB
:1016C0001B68FF225A62032002F0B1FD7B69BB60F8
:1016D000BB6883F3108800BF00BF1837BD4680BDCC
:1016E0009400002038020020240100202501002061
:1016F00080B584B000AFF8600B467A60FB727B68FF
:10170000984700BF1037BD4680BD000080B586B049
:1017100000AFB9607B600346FB731346BB810023B7
:10172000FB750023BB75FB7B002B0ED1174A7B6832
:101730001360174B174A1A60BB891A46B9681448D8
:1017400005F0F2FA0346FB7500E000BFFB7D032BBA
:1017500016D801A252F823F0691700086F17000885
:10176000751700087B1700080023BB7509E00123EB
:10177000BB7506E00223BB7503E00323BB7500E0E5
:1017800000BFBB7D18461837BD4680BD94130020AE
:10179000C41400200038014080B582B000AF7860EA
:1017A0007B681B681A46094B9A4207D1084B1B6895
:1017B000002B05D0064B1B68984701E000BF00E0F6
:1017C00000BF00BF0837BD4680BD00BF00380140E4
:1017D0009413002080B483B000AF7860074BD3F837
:1017E00080207B68DB4305491340C1F8803000BF8F
:1017F0000C37BD465DF8047B704700BF00080058F9
:1018000080B483B000AF7860074BD3F890207B683A
:10181000DB4305491340C1F8903000BF0C37BD468B
:101820005DF8047B704700BF0008005880B483B0A7
:1018300000AF78604FF0B0430A4AC3F89C204FF0E5
:10184000B043D3F89C3023F47C527B681B024FF0EA
:10185000B0411343C1F89C3000BF0C37BD465DF862
:10186000047B7047FECAFECA80B483B000AF7860C4
:101870004FF0B043D3F8903023F018024FF0B0414E
:101880007B681343C1F8903000BF0C37BD465DF84C
:10189000047B704780B400AF4FF0B043D3F8903072
:1018A0004FF0B04243F48033C2F8903000BFBD46E1
:1018B0005DF8047B704780B400AF4FF0B043D3F8BD
:1018C00090304FF0B04223F48033C2F8903000BF24
:1018D000BD465DF8047B704780B400AF4FF0B04365
:1018E000D3F8943003F08063B3F1806F01D101230A
:1018F00000E000231846BD465DF8047B704780B4C5
:1019000000AF4FF0B043D3F8943003F08053B3F1FD
:10191000805F01D1012300E000231846BD465DF839
:10192000047B704780B485B000AF78604FF0B0435F
:101930009A6C4FF0B0417B6813438B644FF0B04317
:101940009A6C7B681340FB60FB6800BF1437BD4690
:101950005DF8047B704780B485B000AF78604FF0CD
:10196000B043DA6C4FF0B0417B681343CB644FF067
:10197000B043DA6C7B681340FB60FB6800BF143730
:10198000BD465DF8047B704780B485B000AF7860D9
:101990004FF0B0431A6D4FF0B0417B6813430B65B5
:1019A0004FF0B0431A6D7B681340FB60FB6800BFCB
:1019B0001437BD465DF8047B704780B483B000AF38
:1019C000786039607B685A683B681B041A437B68FF
:1019D0005A6000BF0C37BD465DF8047B704780B489
:1019E00083B000AF786039607B685A683B681A43FF
:1019F0007B685A6000BF0C37BD465DF8047B7047BA
:101A000080B483B000AF786039607B685A693B6806
:101A10001B041A437B685A6100BF0C37BD465DF852
:101A2000047B704780B483B000AF786039607B6816
:101A30005A693B681A437B685A6100BF0C37BD4640
:101A40005DF8047B704780B483B000AF7860396084
:101A50007B683A689A6000BF0C37BD465DF8047B2E
:101A6000704780B483B000AF786039607B683A68B3
:101A70009A6100BF0C37BD465DF8047B70470000DB
:101A800080B400AF054B1B69044A23F004031361C3
:101A900000BFBD465DF8047B704700BF00ED00E06D
:101AA00080B483B000AF78607B68FF225A6200BFC9
:101AB0000C37BD465DF8047B704780B483B000AF3F
:101AC00078607B68CA225A627B6853225A6200BFE0
:101AD0000C37BD465DF8047B704780B483B000AF1F
:101AE000786039607B689B6823F007023B681A4383
:101AF0007B689A6000BF0C37BD465DF8047B704779
:101B000080B500AF104B4FF400421A6102F09CF90F
:101B100000F07FF900F069F900F018F800F096F88D
:101B200000F05CF900F0B7F900F04BF900F02CF987
:101B300000F0EEF800F0F4F8FEF75AFE4FF0FF3038
:101B400008F056FDFAE700BF0040005880B5AEB07F
:101B500000AF07F1700348220021184608F09CFFEF
:101B600007F1540300221A605A609A60DA601A6121
:101B70005A619A613B1D50220021184608F08CFFE3
:101B800003F056F90020FFF76FFE2F4B1B6823F47C
:101B9000C0632D4A43F4007313602B4B1B6803F49E
:101BA000C0633B603B6807233B674FF480337B6730
:101BB0000123BB674FF48073FB674023C7F8803075
:101BC0000023C7F89C3007F17003184603F0C4FCEB
:101BD0000346002B01D000F08FF96F237B650223B1
:101BE000BB650023FB6500233B6600237B66002367
:101BF000BB660023FB6607F154030121184604F07D
:101C000037F80346002B01D000F076F943F60303C2
:101C10007B600023FB6100233B624FF480737B6495
:101C20004FF48043BB640223FB6410233B653B1DE0
:101C3000184604F05EFC0346002B01D000F05CF96E
:101C400000BFB837BD4680BD0004005880B500AF66
:101C5000064B074A1A60054803F064F80346002B58
:101C600001D000F049F900BF80BD00BF98130020EB
:101C7000000C005880B500AF234B244A1A60224B59
:101C80004FF4E1325A60204B00229A601E4B002232
:101C9000DA601D4B00221A611B4B0C225A611A4B51
:101CA00000229A61184B4FF40042DA61164B002271
:101CB0001A62154B00225A62134B00229A62124894
:101CC00004F0E2FF0346002B01D000F015F90021DB
:101CD0000D4805F0BFFF0346002B01D000F00CF9C2
:101CE0000021094805F0F4FF0346002B01D000F065
:101CF00003F9054805F075FF0346002B01D000F0FD
:101D0000FBF800BF80BD00BFC414002000380140B4
:101D100080B400AF00BFBD465DF8047B7047000093
:101D200080B500AF164B174A1A60154B00225A6057
:101D3000134B0F229A60124B47F6FF72DA60104B7A
:101D400000221A610E4B00229A610D4B0022DA61CB
:101D50000B4B00225A610A4804F052FE0346002B46
:101D600001D000F0C9F80748FFF7A7FE0021054899
:101D7000FFF7B3FE0348FFF793FE00BF80BD00BF2F
:101D8000541500200028004080B500AF0420FFF764
:101D9000C9FD0220FFF7C6FD0120FFF7C3FD0022A9
:101DA0000F210E2002F029FA0E2002F040FA002244
:101DB0000F213A2002F021FA3A2002F038FA00BF4F
:101DC00080BD80B500AF0420FFF7C5FD0120FFF7FF
:101DD000C2FD0220FFF7BFFD00BF80BD80B400AF91
:101DE00000BFBD465DF8047B704780B582B000AF90
:101DF000002007F0F1F978607B68002B05D07B6844
:101E00009B791846FFF712FD00BF00BF0837BD469B
:101E100080BD80B500AF00F027F800F003F800BFE8
:101E200080BD000080B500AF4FF48010FFF7ACFD1F
:101E30003F210C48FFF707FE3F210A48FFF711FE3C
:101E40003F210848FFF7B9FD3F210648FFF7D8FDBD
:101E50003F210448FFF7C3FD3F210248FFF7E2FDA1
:101E600000BF80BD000C005880B500AFFFF734FD07
:101E70000346002B0DD0FFF742FD0346002B08D18F
:101E800002F0D6FF02F0D4FFFFF704FDFFF713FDC9
:101E900000BF00BF80BD80B500AF4FF0FF30FFF73F
:101EA00099FC6FF05000FFF7ABFC00BF80BD80B520
:101EB00084B000AF786002F035F8B8607B68FB60F2
:101EC000FB68B3F1FF3F0AD002F044F803461A461C
:101ED000FB681344FB6002E0FFF7D2FD30BF02F065
:101EE00021F80246BB68D31AFA689A42F4D800BFB8
:101EF00000BF1037BD4680BD80B400AF00BFBD46F7
:101F00005DF8047B704780B483B000AF78604FF019
:101F1000B043D3F8903023F440724FF0B0417B6867
:101F20001343C1F8903000BF0C37BD465DF8047B09
:101F3000704780B400AF4FF0B043D3F890304FF00B
:101F4000B04243F40043C2F8903000BFBD465DF894
:101F5000047B704780B485B000AF78604FF0B04329
:101F6000DA6C4FF0B0417B681343CB644FF0B04361
:101F7000DA6C7B681340FB60FB6800BF1437BD461A
:101F80005DF8047B704780B485B000AF78604FF097
:101F9000B0431A6D4FF0B0417B6813430B654FF0AF
:101FA000B0431A6D7B681340FB60FB6800BF1437B9
:101FB000BD465DF8047B704780B485B000AF7860A3
:101FC0004FF0B0439A6D4FF0B0417B6813438B657F
:101FD0004FF0B0439A6D7B681340FB60FB6800BF15
:101FE0001437BD465DF8047B704780B485B000AF00
:101FF00078604FF0B043DA6D4FF0B0417B68134327
:10200000CB654FF0B043DA6D7B681340FB60FB6833
:1020100000BF1437BD465DF8047B704780B485B0BF
:1020200000AF78604FF0B0431A6E4FF0B0417B685C
:1020300013430B664FF0B0431A6E7B681340FB608E
:10204000FB6800BF1437BD465DF8047B704780B560
:1020500000AF4FF40020FFF796FF002200212E2052
:1020600002F0CBF82E2002F0E2F800BF80BD0000A5
:1020700080B582B000AF78607B681B680D4A9342E0
:1020800013D14FF48010FFF77EFF002200212C2097
:1020900002F0B3F82C2002F0CAF8002200212D2013
:1020A00002F0ABF82D2002F0C2F800BF0837BD46A1
:1020B00080BD00BF000C005880B58CB000AF7860C8
:1020C00007F11C0300221A605A609A60DA601A61F4
:1020D0007B681B68594A93425ED10120FFF785FF58
:1020E0000120FFF737FF0C23FB6102233B62002333
:1020F0007B620323BB620823FB6207F11C031946C2
:102100004FF0904002F04AFC4D4B4E4A1A604C4B47
:1021100011225A604A4B10229A60494B0022DA6021
:10212000474B80221A61464B00225A61444B0022E1
:102130009A61434B0022DA61414B00221A62404807
:1021400002F0BAF80346002B01D0FFF7D5FE4FF09E
:102150008853FB6000233B6100233B7500237B75A4
:102160000123BB6107F10C031946354802F0D6FB89
:102170000346002B01D0FFF7BFFE7B68304A9A6709
:102180002F4A7B68936200220021252002F035F857
:10219000252002F04CF84CE07B681B682A4A9342E9
:1021A00047D14FF48040FFF739FF0220FFF7D2FEFE
:1021B000C023FB6102233B6201237B620323BB62DA
:1021C0000723FB6207F11C031946204802F0E6FBD7
:1021D0001F4B204A1A601E4B0F225A601C4B1022C4
:1021E0009A601B4B0022DA60194B80221A61184B4F
:1021F00000225A61164B00229A61154B0022DA61C7
:10220000134B00221A62124802F056F80346002BC4
:1022100001D0FFF771FE7B680D4A9A670C4A7B6814
:10222000936200220021242001F0E7FF242001F026
:10223000FEFF00BF3037BD4680BD00BF00800040BC
:102240007815002044000240003801400004004896
:10225000641400204404024080B582B000AF78606E
:102260007B681B680B4A934210D102F0E1FD02F03B
:10227000DFFD4FF48070FFF746FEFFF75AFE4FF484
:102280008060FFF799FE786804F0A8FC00BF08376B
:10229000BD4680BD0028004080B400AF00BFBD46F1
:1022A0005DF8047B704780B400AFFEE780B400AFF8
:1022B000FEE780B400AFFEE780B400AFFEE780B475
:1022C00000AF00BFBD465DF8047B704780B400AF2F
:1022D00000BFBD465DF8047B704780B400AF00BF0F
:1022E000BD465DF8047B704780B500AF01F006FE87
:1022F00000BF80BD80B500AF024802F0BEF900BF4C
:1023000080BD00BF7815002080B500AF024804F002
:102310008BFD00BF80BD00BFC414002080B500AF9E
:10232000024804F081FD00BF80BD00BFD41300202F
:1023300080B500AF01F08EFA00BF80BD80B500AF60
:1023400001F0C0FA00BF80BD80B500AF02F0C6FC4E
:1023500000BF80BD80B500AF024802F08EF900BF1B
:1023600080BD00BF6414002080B500AF102002F0D3
:102370009DFC00BF80BD80B500AFFEF771FE00BFC1
:1023800080BD80B586B000AFF860B9607A60002388
:102390007B610AE0AFF300800146BB685A1CBA605B
:1023A000CAB21A707B6901337B617A697B689A4291
:1023B000F0DB7B6818461837BD4680BD80B483B01B
:1023C00000AF78604FF0FF3318460C37BD465DF81C
:1023D000047B704780B483B000AF786039603B689D
:1023E0004FF400525A60002318460C37BD465DF882
:1023F000047B704780B483B000AF78600123184637
:102400000C37BD465DF8047B704780B485B000AFE3
:10241000F860B9607A60002318461437BD465DF84D
:10242000047B704780B586B000AF7860144A154BC6
:10243000D31A7B617B693B61134B1B68002B02D174
:10244000114B124A1A60104B1A687B6813443A69A0
:102450009A4207D208F0E8FA03460C221A604FF0BD
:10246000FF3309E0084B1B68FB60074B1A687B6869
:102470001344054A1360FB6818461837BD4680BDF3
:102480000000032000100000440200200816002075
:1024900080B400AF034B1B681846BD465DF8047B53
:1024A000704700BF8075FF1F80B400AF034B1B68EF
:1024B000DBB21846BD465DF8047B70478475FF1F8C
:1024C00080B400AF034B1B681B0A1846BD465DF87D
:1024D000047B70478475FF1FB0B58CB000AF204BF4
:1024E0003C461D460FCD0FC40FCD0FC495E80F001D
:1024F00084E80F0000F012FA0121022008F048F8E9
:10250000184A0021202008F057F93B46184606F0EB
:102510008BFE0346002B01D0FFF7EEFC00F014FA0F
:1025200007F01CFD104A0021012008F045F90F4A70
:102530000021022008F040F90D4B002283F8802092
:10254000202006F0C6FA00F0B3FB0A4B00220A492D
:102550000020FEF73FFF00BF3037BD46B0BD00BFD3
:1025600030BB0008A58E00088D2A0008E92A000863
:1025700030010020652B0008B1010020F0B597B0B4
:1025800006AF78607B680133BB63BB6B02337B6350
:102590000023FB63BB6B1B78FF2B09D0FF2B00F3E1
:1025A0007F81052B00F098803E2B00F0B38077E10F
:1025B000A74B01221A70BB6B02333B633B6B1B883A
:1025C0009BB240F60202934229D040F602029342A7
:1025D0007EDC042B71D040F20742934278D13B6BF2
:1025E00002337B627B6A1B78022B73D17B6A5B7838
:1025F000002B6FD1002001F025FB964808F0F0FA7F
:10260000954B93F88230012B64D1934B93F8803033
:10261000062B5FD00021022008F0F0F85AE03B6B57
:102620000233FB62002006F054FAFB6A9A788B4B67
:102630001A70FB6AB3F803309AB2884B5A80FB6A6F
:10264000B3F805309AB2854B9A80FB6AB3F807302D
:102650009AB2824BDA80FB6AB3F809309AB27F4BA8
:102660001A81FB6AB3F80B309AB27C4B5A817A4BD1
:10267000D88A7A4B9988794BDC88784B1D89774BBF
:102680005B89764A12780126049603921022029200
:102690001022019200932B46224606F088FA034648
:1026A00087F82B3097F82B30002B02D0022001F056
:1026B000AFFA202006F00DFA0DE0012001F0A8FA93
:1026C000654B93F881300A211846FEF789FF02E036
:1026D00000BFE8E000BFE6E07B6BB3F801309AB2E0
:1026E0005D4BDB8A9A4240F0DD805B4B0022DA8250
:1026F000594B002283F88020594808F071FA544B56
:1027000001221A70544BDA8A514B5A80504800F01B
:1027100015FBC7E0BB6B02333B623B6A1B78012BA6
:1027200002D0022B31D0BAE03B6A0133FB60FB6878
:10273000B3F801309AB2484BDA82474B062283F84D
:102740008020484808F04CFA414B00221A70424B56
:10275000DA8A3F4B5A803E4800F0F0FA3E4BDB8A63
:10276000184605F0CBFE034687F82B3097F82B3040
:10277000002B06D13C4808F033FA3C4808F094F9A5
:102780008DE03B4808F090F989E03B6A0133FB613A
:10279000FB695B78FB76FB695B7ABB76FB69093387
:1027A00001337B610023FB63FB7E002B76D171E05C
:1027B000FB6B7A6913441B78FB74FB6B01337A69FA
:1027C00013441B78BB74BB7CFF2B09D0FF2B57DC59
:1027D000162B57D0162B53DC012B55D00A2B54E067
:1027E000FB7C062B30D9FB6B02337A6913441B78D0
:1027F000012B29D11F4808F0F3F9FB6B03337A69E9
:1028000013441B78832B21D11B4808F0E9F9124BA4
:10281000012283F88220FB69DA78184B1A70FB6971
:102820001A79164B5A70FB695A79144B9A70FB69E6
:102830009A79124BDA70FB69DA79104B1A71FB69DD
:102840001A7A0E4B5A7102E000BF1EE000BF1CE076
:10285000D815002060BB000830010020E4150020DE
:1028600090BB0008B8BB0008DCBB000810BC000827
:1028700040BC000880BC00089CBC0008DC1500209F
:1028800000BF02E000BF00E000BFFB7C0133FA6B39
:102890001344FB63BB7EFA6B9A4289DB00BF02E004
:1028A00000BF00E000BF012318464437BD46F0BD1D
:1028B00080B483B000AF0346FB80084BDB8AFA8804
:1028C0009A4203D1054B93F8803000E0002318466C
:1028D0000C37BD465DF8047B704700BF3001002017
:1028E00080B500AF00F074FD0346062B04D0002134
:1028F000012007F083FF01E000F052FA00BF80BD25
:1029000080B400AF00BFBD465DF8047B704780B463
:1029100000AF00BFBD465DF8047B704780B582B054
:1029200000AF064B3B60064B7B603B4619460548B3
:1029300006F09CFA00BF0837BD4680BD2800032082
:10294000792C0008412C0008F0B58FB006AF0023A9
:102950003B8006F008F900F00DF9F861FA690621EC
:10296000002005F0F6FF4EF66E53BB60FFF790FDBA
:1029700003467B603B1D1A4606212E2005F0E9FF29
:102980003D4A1021182005F0E4FF3C4A10210820A0
:1029900005F0DFFF1821012006F044F805F002FDE4
:1029A0000023FB76FB7E43F00403FB76FB7E002BCB
:1029B0001ED0334B7B6107F11202F87E07F10E0344
:1029C000019307F11003009313460722002105F03D
:1029D000FDFA7C8A3D8A7869FDF7D2FB0346DAB2BC
:1029E0007B690093134600222946204605F0FFFC30
:1029F000788AF9893B4600930223002205F0F7FC10
:102A0000204B01221A701F4B1B78184605F0ECF979
:102A10001C4B01225A701B4B08221A71194B1022B1
:102A20005A71184B0122DA70164B174A9A60154BEF
:102A300001229A70134B9C78124B5D78114B1B79D5
:102A4000104A52790F49C9780E48806800260496CA
:102A5000039002910192009300230122294620460F
:102A600005F00CFA074B9B78002B01D005F039FBE1
:102A700000BF2437BD46F0BDB0C10008C0C100088A
:102A8000C0BC00083001002007B2010080B582B050
:102A900000AF124B93F88030062B1AD0002001F0C3
:102AA000B7F8012300224FF448714FF4487005F045
:102AB0003CFB0346FB71FB79002B03D1084807F070
:102AC000F3FF06E0022001F0A3F8064807F0ECFF50
:102AD00000BF00BF0837BD4680BD00BF30010020E9
:102AE000C8BC0008F8BC000880B58AB008AF1A4816
:102AF00007F0DAFF194B93F88030062B28D010230B
:102B00000693102305934FF4FA7304930023039361
:102B1000502302932823019300230093104B00229B
:102B20004FF448714FF4487005F077FB0346FB7192
:102B3000FB79002B04D1094B042283F8802007E0A5
:102B4000022001F065F8054B002283F8802000BFC9
:102B500000BF0837BD4680BD28BD000830010020F9
:102B6000DC15002080B500AF012001F06BF800BF3C
:102B700080BD000080B586B000AFFFF789FC3861EA
:102B80003B69B3F1FF3F23D0FFF79AFCB860FFF732
:102B90008BFC78603B69DAB2164B1A703B691B0AF2
:102BA000DAB2144B5A707B68DAB2124B9A70BB6877
:102BB000DAB2104BDA70BB681B0ADAB20D4B1A712D
:102BC000BB681B0CDAB20B4B5A710A4B7B610BE0F2
:102BD000002006F001FBF860FB68002B02D0FB68C8
:102BE0007B6101E0044B7B617B6918461837BD4669
:102BF00080BD00BF48020020A8C1000880B582B097
:102C000000AF78600021202007F0F8FD00BF0837F2
:102C1000BD4680BD80B582B000AF7860012007F06E
:102C200059FE00BF0837BD4680BD80B582B000AFF9
:102C30007860012007F06EFE00BF0837BD4680BDFA
:102C400080B584B000AF78607B68FB60FB685B6830
:102C50000833184607F0D2F90346FB72FB7A002BC3
:102C600003D0FB6801221A7002E0FB6800221A7090
:102C700000BF1037BD4680BD80B584B000AF0346AD
:102C8000FB71FB79002B02D0012B06D00BE03F2318
:102C9000FB60F86807F0DEFD05E03F23FB60F868A5
:102CA00007F0F8FD00BF00BF1037BD4680BD000033
:102CB00080B582B000AF0023FB711A4A00210420C6
:102CC00007F07AFD184A0021082007F075FD174B20
:102CD00000221A70154B0022DA80144B00225A7021
:102CE000124B00229A70114B0122DA700F4B002216
:102CF0001A710023FB7108E0FB790D4A1B01134494
:102D000000221A70FB790133FB71FB79002BF3D0A1
:102D1000084807F059F9084807F062FF00BF083774
:102D2000BD4680BDA53400085D340008C401002004
:102D3000B4010020B12D000854BD000880B584B056
:102D400000AF78607B681B78002B02D0012B05D088
:102D50001EE07B685A88104BDA8019E00023FB7371
:102D60000D4B0022DA8005E0FB7B0C4A1B0113446B
:102D700000221A70FB7B002B06D1FB7B074A1B014C
:102D800013441B78002BEFD1002000F05BFF00BF45
:102D900000BF1037BD4680BDC4010020B401002033
:102DA00080B500AF0021082007F028FD00BF80BDDE
:102DB00080B594B000AF7860002387F845307B6819
:102DC00001333B643B6C1B78FF2B40F0B5823B6CBE
:102DD0000233FB63FB6B1B889BB2A3F604430C2BF3
:102DE00000F29E8201A252F823F000BF21310008B8
:102DF00021330008D72F00082133000821330008B1
:102E000021330008212E0008213300082133000857
:102E100021330008213300084F320008CB3200086C
:102E2000FB6B02333B633B6B1A785B781B021343EB
:102E3000FB85002387F84D302EE097F84D30BC4AD3
:102E40001B01134402331B881846FFF731FD03466C
:102E500087F82D3097F84D30B54A1B0113441B7885
:102E6000062B14D197F82D30002B10D197F84D3048
:102E7000AF4A1B01134400221A7097F84D30AC4A38
:102E80001B01134402334FF6FF721A8010E097F8CB
:102E90004D30013387F84D3097F84D30002B07D176
:102EA00097F84D30A24A1B0113441B78002BC4D164
:102EB00097F84D30002B40F0358297F84D309C4A02
:102EC0001B0113440233FA8D1A803B6BDA783B6B9B
:102ED0009B78B2FBF3F387F82C303B6B9B78142B79
:102EE00040F02082102387F84E30002387F84F30BF
:102EF0006AE097F84E303A6B13441B799AB297F810
:102F00004E30396B0B44043301331B789BB21B02E8
:102F10009BB213437B857B8D4FF64062934249D130
:102F200097F84D30824A1B01134402331B8819461F
:102F3000804807F0B9FD97F84E30103B3A6B1344C8
:102F40001B7999B297F84E30103B3A6B1344043317
:102F500001331B789BB21B029AB297F84D300A439B
:102F600091B2734A1B01134404330A461A8097F83E
:102F70004E300E3B3A6B13441B7999B297F84E30A2
:102F80000E3B3A6B1344043301331B789BB21B0294
:102F90009AB297F84D300A4391B2654A1B01134427
:102FA00006330A461A8097F84D30614A1B011344D4
:102FB00008221A7097F84E30063387F84E3097F88B
:102FC0004F30013387F84F3097F84F2097F82C3067
:102FD0009A428ED3A6E1FB6B02337B62002387F813
:102FE0004B3004E097F84B30013387F84B3097F8BB
:102FF0004B30002B0BD197F84B304D4A1B0113443B
:1030000002331A887B6A1B889BB29A42EAD197F8EE
:103010004B30002B40F08881112387F84C307B6ABD
:103020009B78152B40F080817B6ADB78013BDAB21C
:103030007B6ADA706FE097F84C307A6A13441B7938
:103040009AB297F84C30796A0B44043301331B78F9
:103050009BB21B029BB213437B8497F84C300E3B10
:103060007A6A13441B799AB297F84C300E3B796A0E
:103070000B44043301331B789BB21B029BB21343F6
:103080003B847B8C4FF6416293421AD197F84B30C8
:10309000274A1B01134402331B881946264807F0B0
:1030A00003FD97F84B30224A1B01134409221A7082
:1030B00097F84B301E4A1B01134408333A8C1A8090
:1030C0001EE07B8C4FF64262934219D197F84B3049
:1030D000174A1B01134402331B881946174807F08F
:1030E000E3FC97F84B30124A1B0113440A221A7072
:1030F00097F84B300E4A1B0113440C333A8C1A805C
:103100007B6ADB78153BDAB27B6ADA7097F84C3071
:10311000153387F84C307B6ADB78002B8BD103E1C9
:10312000FB6B0233FB61002387F848300DE000BFE2
:10313000B401002070BD0008ACBD0008E4BD00086B
:1031400097F84830013387F8483097F84830002B1B
:103150000BD197F848307C4A1B01134402331A887C
:10316000FB691B889BB29A42EAD197F84830002B42
:1031700040F0DC80FB69DB789B08FB76002387F856
:103180004A30FB699B78012B40F0D080002387F800
:10319000493056E097F84A30FA6913441B799AB2DD
:1031A00097F84A30F9690B44043301331B789BB21A
:1031B0001B029BB213433B8397F84A300233FA69F0
:1031C00013441B799AB297F84A300233F9690B44D9
:1031D000043301331B789BB21B029BB21343FB8267
:1031E000FB8A42F60212934221D197F84830564AA0
:1031F0001B01134402331B881946544807F054FC42
:1032000097F84830504A1B0113441B780A2B0ED103
:1032100097F848304C4A1B0113440E333A8B1A80FE
:1032200097F84830484A1B0113440B221A7097F84C
:103230004A30043387F84A3097F84930013387F829
:10324000493097F84920FB7E9A42A3D36EE0FB6B8E
:1032500002337B63002387F8473004E097F8473058
:10326000013387F8473097F84730002B0BD197F898
:103270004730354A1B01134402331A887B6B1B8885
:103280009BB29A42EAD197F84730002B50D17B6B22
:103290005B889AB297F847302B491B010B440C33DB
:1032A0001B889A4244D17B6B1B79022B40D10223AD
:1032B0003B727B6B1B793B747B6B0533FB6007F1C7
:1032C0000803184600F046F832E0FB6B0233BB639C
:1032D0001F4807F085FC0A2007F0FEFB002387F853
:1032E000463004E097F84630013387F8463097F8C7
:1032F0004630002B0BD197F84630134A1B0113447C
:1033000002331A88BB6B1B889BB29A42EAD197F8AA
:103310004630002B0ED10021042007F06FFA09E09F
:1033200000BF0AE000BF08E000BF06E000BF04E005
:1033300000BF02E000BF00E000BF97F8453018462C
:103340005037BD4680BD00BFB401002028BE000834
:1033500070BE000880B582B000AF78607B681B78D3
:10336000022B27D17B685B681A78154B5A70144B77
:103370005B78012B1CD17B685B685A78104B9A7084
:103380000F4B9B78002B09D1002000F05BFC0D480F
:1033900007F08AFB0C4807F087FB0AE00B4807F0B0
:1033A00083FB094807F080FB002000F031FC00E0BF
:1033B00000BF00E000BF00BF0837BD4680BD00BFB2
:1033C000C4010020A0BE0008E0BE0008E4BE000862
:1033D00080B400AF034B1B781846BD465DF8047BF4
:1033E000704700BFB401002080B584B000AF034631
:1033F0003A60FB800B467B714223FB730023BB7357
:103400001BE0FB884FF64162934212D1BB7B124A0C
:103410001B01134402331888BB7B0F4A1B01134462
:10342000083319883B68022205F011FA0346FB7342
:1034300000E000BFBB7B0133BB73BB7B002B06D11D
:10344000BB7B054A1B0113441B78002BD9D1FB7BA6
:1034500018461037BD4680BDB401002080B500AFCE
:103460000C4807F021FB0C4807F01EFB0B4B1B79A7
:10347000002B03D1094B01221A7102E0074B0022F5
:103480001A71074A00214FF64160FFF7ADFF00BFF8
:1034900080BD00BF24BF0008E0BE0008C4010020BA
:1034A000C701002080B582B000AF0123BB8000239C
:1034B0007B800023FB71A5E0FB795A4A1B01134472
:1034C0001B78073B052B00F2998001A252F823F0EC
:1034D000E9340008F13400082335000859350008A4
:1034E0008F350008C93500084F4807F079FB86E0A2
:1034F0004E4807F075FBFB794A4A1B01134402331F
:103500001888FB79474A1B01134404331988FB7957
:10351000444A1B01134406331B881A4605F03CF845
:103520006DE0434807F05CFBFB793E4A1B01134406
:1035300002331888FB793B4A1B011344083319886E
:10354000FB79384A1B01134408331B8802339BB2B2
:103550001A4605F08CF852E0364807F041FBFB793B
:10356000304A1B01134402331888FB792D4A1B0192
:1035700013440C331988FB792A4A1B0113440C337A
:103580001B8802339BB21A4605F071F837E02A48CF
:1035900007F026FBFB79234A1B01134402331888EA
:1035A000FB79204A1B0113440E3319883B1D02226C
:1035B00005F0C8F8FB791B4A1B01134406221A7058
:1035C000022000F03FFB1AE01C4807F009FBFB79E2
:1035D000144A1B01134402331888FB79114A1B015A
:1035E00013440E331988BB1C022205F0ABF8FB799B
:1035F0000C4A1B01134406221A7000E000BFFB793D
:103600000133FB71FB79002B08D1FB79054A1B01C3
:1036100013441B78002B7FF44FAF00BF00BF083767
:10362000BD4680BDB401002064BF00087CBF000817
:10363000A4BF0008E0BF000820C0000844C0000884
:1036400080B400AF054BDB68044A43F40043D36009
:1036500000BFBD465DF8047B704700BF0004005802
:1036600080B483B000AF7860064BD3F8D42005490E
:103670007B681343C1F8D43000BF0C37BD465DF8FA
:10368000047B70470008005880B483B000AF7860B6
:10369000054B1A6A04497B6813430B6200BF0C3761
:1036A000BD465DF8047B70470008005880B485B0C3
:1036B00000AF78604FF0B0431A6D4FF0B0417B68B7
:1036C00013430B654FF0B0431A6D7B681340FB60EA
:1036D000FB6800BF1437BD465DF8047B704780B4BB
:1036E00085B000AF78604FF0B043D3F850214FF071
:1036F000B0417B681343C1F850314FF0B043D3F869
:1037000050217B681340FB60FB6800BF1437BD4647
:103710005DF8047B704780B483B000AF78607B684D
:103720001B6843F480327B681A6000BF0C37BD46CB
:103730005DF8047B704780B483B000AF78607B682D
:103740001B6843F001027B681A6000BF0C37BD465E
:103750005DF8047B704780B483B000AF7860396057
:103760007B685A683B681B04DB431A407B685A60DD
:1037700000BF0C37BD465DF8047B704780B483B052
:1037800000AF786039607B685A683B681B041A4355
:103790007B685A6000BF0C37BD465DF8047B7047FC
:1037A00080B483B000AF786039607B685A683B684A
:1037B000DB431A407B685A6000BF0C37BD465DF89A
:1037C000047B704780B483B000AF786039607B6859
:1037D0003A689A6000BF0C37BD465DF8047B7047BD
:1037E00080B483B000AF786039603B681A047B68AE
:1037F0009A6000BF0C37BD465DF8047B704780B40B
:1038000083B000AF786039607B68DA683B6813404A
:103810003A689A4201D1012300E0002318460C3790
:10382000BD465DF8047B704780B483B000AF78601C
:1038300039607B68DA693B6813403A689A4201D183
:10384000012300E0002318460C37BD465DF8047BD9
:103850007047000080B500AF02211948FFF7E4FF70
:103860000346002B09D0164B5B68DB4303F00203D1
:10387000002B02D000F0EAF81FE001211048FFF70A
:10388000D3FF0346002B08D00D4B5B6803F0010308
:10389000002B02D100F09EF80FE008210848FFF746
:1038A000C3FF0346002B09D0054B5B68DB4303F0E5
:1038B0000803002B02D000F015F900BF00BF80BD47
:1038C000000C005880B500AF02212248FFF797FF97
:1038D0000346002B09D11F4B5B68DB4303F4003325
:1038E000002B02D000F0A6F831E002211948FFF7C2
:1038F00086FF0346002B09D1164B5B68DB4303F4BC
:103900000033002B02D000F095F820E00821114888
:10391000FFF775FF0346002B09D10E4B5B68DB43B5
:1039200003F40023002B02D000F0BEF80FE02021AA
:103930000848FFF764FF0346002B09D1054B5B687D
:10394000DB4303F40013002B02D000F04FF800BF5C
:1039500000BF80BD000C005880B500AF4FF4801050
:10396000FFF7BDFE4FF40070FFF77AFE4FF40070D2
:10397000FFF78AFE40BF20BFFFF762FE00BF80BD99
:1039800080B500AF4FF48010FFF790FE0648FFF7B8
:10399000D2FE0548FFF7BFFE2C2000F048FC2D208A
:1039A00000F045FC00BF80BD000C005880B500AFA2
:1039B00001210248FFF7F4FE00BF80BD000C005853
:1039C00080B500AF01210248FFF70AFF00BF80BDAC
:1039D000000C005880B500AF06F010FC0121024831
:1039E000FFF7F0FE00BF80BD000C005880B500AFAF
:1039F00020210348FFF7C2FE06F030FC00BF80BD67
:103A0000000C005880B500AF02210248FFF7C8FE45
:103A100000BF80BD000C005880B500AF02210448F3
:103A2000FFF7DEFE02210248FFF795FE00BF80BDD2
:103A3000000C005880B500AF02210348FFF79EFE3E
:103A400006F05CFC00BF80BD000C005880B500AFE4
:103A500006F06AFC02210248FFF7B4FE00BF80BDF9
:103A6000000C005880B582B000AF786008210C4887
:103A7000FFF7C5FE0346002B07D00A4A7B68136098
:103A800008210748FFF767FE06E07B689847082192
:103A90000348FFF7A5FE00BF0837BD4680BD00BF45
:103AA000000C00585002002080B500AF08210648E5
:103AB000FFF764FE054B1B68984708210248FFF793
:103AC0008FFE00BF80BD00BF000C005850020020D8
:103AD00080B500AF08210248FFF762FE00BF80BD3D
:103AE000000C005880B500AF06F0C6FC0821024863
:103AF000FFF768FE00BF80BD000C0058D458C450CA
:103B00000433C4188C42F9D37047036004308842F0
:103B1000FBD370470C4885460C480D490D4A0023DD
:103B2000FFF7EFFF0C480D490023FFF7F0FF0C48AB
:103B30000C490023FFF7EBFF00F010F906F07AFFC5
:103B4000FDF7DEFFFEE70000000003200400002078
:103B50009400002064C300081C020020041600200A
:103B6000E0010320570A0320FEE780B485B000AFD0
:103B700078604FF0B043DA6C4FF0B0417B6813438C
:103B8000CB644FF0B043DA6C7B681340FB60FB689A
:103B900000BF1437BD465DF8047B704780B588B020
:103BA00000AF0346FB7107F10C0300221A605A6054
:103BB0009A60DA601A610220FFF7D7FFFB79124A98
:103BC00032F81330FB6001233B6100237B61022349
:103BD000BB61FB790D4A52F8233007F10C02114604
:103BE000184600F0DBFEFB79084A52F82300FB7907
:103BF000054A32F813300022194601F03FF800BFA1
:103C00002037BD4680BD00BFD0C1000804000020A1
:103C100080B582B000AF0346FB71FB79074A52F8CA
:103C20002300FB79064A32F813300122194601F0CD
:103C300025F800BF0837BD4680BD00BF0400002046
:103C4000D0C1000880B582B000AF0346FB71FB799C
:103C5000074A52F82300FB79064A32F81330002253
:103C6000194601F00BF800BF0837BD4680BD00BF04
:103C700004000020D0C1000880B588B000AF034622
:103C80000A46FB711346BB7107F10C0300221A6050
:103C90005A609A60DA601A61FB79002B03D1042024
:103CA000FFF763FF0CE0FB79012B03D10820FFF73E
:103CB0005CFF05E0FB79022B02D10820FFF755FFDE
:103CC000BB79002B17D1FB79204A32F81330FB6007
:103CD00000233B6101237B610223BB61FB791C4A0A
:103CE00052F8233007F10C021146184600F056FE38
:103CF0000120FEF7DCF8BB79012B22D1FB79134AB6
:103D000032F81330FB6001237B61124B3B61FB797E
:103D10000F4A52F8233007F10C021146184600F002
:103D20003DFEFB790C4AD35C5BB200220F211846A2
:103D300000F063FAFB79084AD35C5BB2184600F0E6
:103D400076FA00BF2037BD4680BD00BFD8C100084D
:103D50001000002000002110E0C1000880B400AF76
:103D6000264B00229A60254BD3F88830234A43F42F
:103D70007003C2F888304FF0B0431B684FF0B04278
:103D800043F0010313604FF0B0434FF4E0229A6018
:103D90004FF0B0431A684FF0B041194B13400B601D
:103DA0004FF0B043D3F894304FF0B04223F0050306
:103DB000C2F894304FF0B043D3F898304FF0B0428F
:103DC00023F00103C2F898304FF0B0430D4ADA6097
:103DD0004FF0B0430B4A1A614FF0B0431B684FF0ED
:103DE000B04223F4802313604FF0B04300229A6165
:103DF00000BFBD465DF8047B704700BF00ED00E0EA
:103E0000FBFEF6FA0010042280B400AF054B5B689D
:103E1000044A43F00103536000BFBD465DF8047BD4
:103E2000704700BF002004E080B400AF054B5B6822
:103E3000044A43F00203536000BFBD465DF8047BB3
:103E4000704700BF002004E080B582B000AF0023BF
:103E5000FB710C4B1B680B4A43F480731360032007
:103E600000F0C0F9002000F00FF80346002B02D04C
:103E70000123FB7101E0FEF7EAF8FB7918460837E9
:103E8000BD4680BD0040005880B584B000AF78606A
:103E90000023FB73174B1B78002B24D002F094F8FF
:103EA0000246144B1B7819464FF47A73B3FBF1F3B7
:103EB000B2FBF3F3184600F0D6F90346002B0FD1FE
:103EC0007B680F2B09D8002279684FF0FF3000F093
:103ED00094F9094A7B68136007E00123FB7304E04F
:103EE0000123FB7301E00123FB73FB7B18461037B2
:103EF000BD4680BD240000202000002080B400AF1B
:103F0000064B1B781A46064B1B681344044A136081
:103F100000BFBD465DF8047B704700BF2400002051
:103F2000F015002080B400AF034B1B681846BD4657
:103F30005DF8047B704700BFF015002080B400AF2F
:103F4000034B1B681846BD465DF8047B704700BFF5
:103F50002000002080B400AF034B1B781846BD46FC
:103F60005DF8047B704700BF2400002080B500AFDF
:103F7000FFF74AFF00BF80BD80B500AFFFF754FFD9
:103F800000BF80BD80B485B000AF78607B6803F06F
:103F90000703FB600C4BDB68BB60BA684FF6FF039E
:103FA0001340BB60FB681A02BB68134343F0BF6356
:103FB00043F40033BB60044ABB68D36000BF1437CE
:103FC000BD465DF8047B704700ED00E080B400AFB3
:103FD000044BDB681B0A03F007031846BD465DF877
:103FE000047B704700ED00E080B483B000AF03466F
:103FF000FB7197F90730002B0BDBFB7903F01F02F5
:10400000074997F907305B09012000FA02F241F8ED
:10401000232000BF0C37BD465DF8047B704700BF0E
:1040200000E100E080B483B000AF0346FB7197F974
:104030000730002B12DBFB7903F01F020A4997F9C6
:1040400007305B09012000FA02F2203341F82320F7
:10405000BFF34F8F00BFBFF36F8F00BF00BF0C37A0
:10406000BD465DF8047B704700E100E080B483B09A
:1040700000AF0346FB7197F90730002B0CDBFB798F
:1040800003F01F02074997F907305B09012000FA86
:1040900002F2403341F8232000BF0C37BD465DF8E3
:1040A000047B704700E100E080B483B000AF0346BA
:1040B000FB7197F90730002B0CDBFB7903F01F0233
:1040C000074997F907305B09012000FA02F26033D3
:1040D00041F8232000BF0C37BD465DF8047B7047D4
:1040E00000E100E080B483B000AF03463960FB71AB
:1040F00097F90730002B0ADB3B68DAB20C4997F9D5
:1041000007301201D2B20B4483F800230AE03B6867
:10411000DAB20849FB7903F00F03043B1201D2B273
:104120000B441A7600BF0C37BD465DF8047B704720
:1041300000E100E000ED00E080B489B000AFF8607D
:10414000B9607A60FB6803F00703FB61FB69C3F1A8
:104150000703042B28BF0423BB61FB690433062B30
:1041600002D9FB69033B00E000237B614FF0FF3283
:10417000BB6902FA03F3DA43BB681A407B699A40D1
:104180004FF0FF317B6901FA03F3D9437B680B40A1
:10419000134318462437BD465DF8047B7047000082
:1041A00080B582B000AF78607B68013BB3F1807F5F
:1041B00001D301230FE00A4A7B68013B53600F21C2
:1041C0004FF0FF30FFF78EFF054B00229A60044B43
:1041D00007221A60002318460837BD4680BD00BF7D
:1041E00010E000E080B582B000AF78607868FFF73B
:1041F000C9FE00BF0837BD4680BD80B586B000AFA0
:104200000346B9607A60FB73FFF7E0FE78617A6875
:10421000B9687869FFF790FF024697F90F301146A9
:104220001846FFF75FFF00BF1837BD4680BD80B559
:1042300082B000AF0346FB7197F907301846FFF7CD
:10424000D3FE00BF0837BD4680BD80B582B000AF49
:104250000346FB7197F907301846FFF7E3FE00BFEE
:104260000837BD4680BD80B582B000AF7860786801
:10427000FFF796FF034618460837BD4680BD80B558
:1042800082B000AF0346FB7197F907301846FFF77D
:10429000EDFE00BF0837BD4680BD80B582B000AFDF
:1042A0000346FB7197F907301846FFF7FDFE00BF84
:1042B0000837BD4680BD000080B584B000AF78608F
:1042C0007B68002B01D101238EE07B681B681A46B6
:1042D000474B9A420FD87B681B681A46454B1344DC
:1042E000454AA2FB03231B099A007B685A647B683A
:1042F000424A1A640EE07B681B681A46404B13441E
:104300003D4AA2FB03231B099A007B685A647B6821
:104310003C4A1A647B68022283F825207B681B686C
:104320001B68FB60FB6823F4FF4323F07003FB6012
:104330007B689A687B68DB681A437B681B691A4351
:104340007B685B691A437B689B691A437B68DB69FE
:104350001A437B681B6A1343FA681343FB607B684C
:104360001B68FA681A60786800F074FA7B689B68CA
:10437000B3F5804F02D17B6800225A607B685A688F
:104380007B689B6C02F03F021A607B68DB6C7A688A
:10439000126D5A607B685B68002B10D07B685B688D
:1043A000042B0CD8786800F093FA7B685B6D0022D0
:1043B0001A607B689B6D7A68D26D5A6008E07B68F2
:1043C00000225A657B6800229A657B680022DA65C4
:1043D0007B680022DA637B68012283F825207B68F2
:1043E000002283F82420002318461037BD4680BDE4
:1043F00007040240F8FFFDBFCDCCCCCC000002404A
:10440000F8FBFDBF0004024080B586B000AFF86045
:10441000B9607A603B600023FB75FB6893F8243039
:10442000012B01D1022366E0FB68012283F82420DE
:10443000FB6893F82530DBB2012B55D1FB680222D3
:1044400083F82520FB680022DA63FB681B681A6882
:10445000FB681B6822F001021A603B687A68B96841
:10446000F86800F0B9F9FB681B6B002B08D0FB68FB
:104470001B681A68FB681B6842F00E021A600FE0A6
:10448000FB681B681A68FB681B6822F004021A604C
:10449000FB681B681A68FB681B6842F00A021A6016
:1044A000FB689B6C1B6803F48033002B07D0FB6810
:1044B0009B6C1A68FB689B6C42F480721A60FB6804
:1044C0005B6D002B07D0FB685B6D1A68FB685B6D4A
:1044D00042F480721A60FB681B681A68FB681B68EC
:1044E00042F001021A6005E0FB68002283F82420F4
:1044F0000223FB75FB7D18461837BD4680BD80B48E
:1045000083B000AF78607B68002B01D101234FE0BE
:104510007B6893F82530DBB2022B08D07B6804223D
:10452000DA637B68002283F82420012340E07B6863
:104530001B681A687B681B6822F00E021A607B6891
:104540009B6C1A687B689B6C22F480721A607B6893
:104550001B681A687B681B6822F001021A607B687E
:104560005B6C03F01C027B681B6C012101FA02F2F8
:104570005A607B68DB6C7A68126D5A607B685B6D91
:10458000002B0CD07B685B6D1A687B685B6D22F436
:1045900080721A607B689B6D7A68D26D5A607B6806
:1045A000012283F825207B68002283F82420002341
:1045B00018460C37BD465DF8047B704780B584B063
:1045C00000AF78600023FB737B6893F82530DBB283
:1045D000022B05D07B680422DA630123FB7347E0DA
:1045E0007B681B681A687B681B6822F00E021A60E1
:1045F0007B681B681A687B681B6822F001021A60DE
:104600007B689B6C1A687B689B6C22F480721A60D2
:104610007B685B6C03F01C027B681B6C012101FA58
:1046200002F25A607B68DB6C7A68126D5A607B68B4
:104630005B6D002B0CD07B685B6D1A687B685B6DD3
:1046400022F480721A607B689B6D7A68D26D5A6022
:104650007B68012283F825207B68002283F82420D0
:104660007B689B6B002B03D07B689B6B78689847BB
:10467000FB7B18461037BD4680BD80B584B000AFC7
:1046800078607B681B6C1B68FB607B681B681B6821
:10469000BB607B685B6C03F01C0304229A40FB68E0
:1046A0001340002B26D0BB6803F00403002B21D05D
:1046B0007B681B681B6803F02003002B07D17B6815
:1046C0001B681A687B681B6822F004021A607B680A
:1046D0005B6C03F01C027B681B6C042101FA02F284
:1046E0005A607B681B6B002B71D07B681B6B7868F2
:1046F00098476CE07B685B6C03F01C0302229A40D5
:10470000FB681340002B2ED0BB6803F00203002B84
:1047100029D07B681B681B6803F02003002B0BD19A
:104720007B681B681A687B681B6822F00A021A60A3
:104730007B68012283F825207B685B6C03F01C02F8
:104740007B681B6C022101FA02F25A607B6800222E
:1047500083F824207B68DB6A002B38D07B68DB6A17
:104760007868984733E07B685B6C03F01C03082291
:104770009A40FB681340002B2AD0BB6803F0080363
:10478000002B25D07B681B681A687B681B6822F0A9
:104790000E021A607B685B6C03F01C027B681B6C6A
:1047A000012101FA02F25A607B680122DA637B6818
:1047B000012283F825207B68002283F824207B686F
:1047C0005B6B002B04D07B685B6B7868984700BFFD
:1047D00000BF1037BD4680BD80B485B000AFF86023
:1047E000B9607A603B60FB68DB6CFA68126D5A60F6
:1047F000FB685B6D002B04D0FB689B6DFA68D26D83
:104800005A60FB685B6C03F01C02FB681B6C0121A7
:1048100001FA02F25A60FB681B683A685A60FB684A
:104820009B68102B08D1FB681B687A689A60FB684C
:104830001B68BA68DA6007E0FB681B68BA689A60B0
:10484000FB681B687A68DA6000BF1437BD465DF804
:10485000047B704780B485B000AF78607B681B68CC
:104860001A46174B9A420AD87B685B6C9B089B00E0
:1048700003F1804303F502337A68936407E07B68B1
:104880005B6C9B089A000F4B13447A6893647B68B7
:104890001B68DBB2083B0C4AA2FB03231B09FB602D
:1048A0007B680A4ADA64FB6803F01F0301229A401E
:1048B0007B681A6500BF1437BD465DF8047B7047FE
:1048C000070402401C080240CDCCCCCC800802403A
:1048D00080B485B000AF78607B685B6803F03F030D
:1048E000FB60FA680B4B13449B001A467B685A65C1
:1048F0007B68094A9A65FB68013B03F003030122C8
:104900009A407B68DA6500BF1437BD465DF8047BCA
:10491000704700BF3F8200104009024080B483B05E
:1049200000AF786039607B6893F82530DBB2012BEB
:104930002BD17B6893F82430012B01D1022325E091
:104940007B68012283F824207B689B6C1A68124BD9
:1049500013403A6811683A68D268013AD2041143A8
:104960003A68526811433A68127A120411433A685D
:10497000527A520211437A68926C0B4313607B683F
:10498000002283F82420002300E0012318460C377E
:10499000BD465DF8047B7047FFFD00E080B487B042
:1049A00000AF7860396000237B614CE13B681A6896
:1049B00001217B6901FA03F31340FB60FB68002BC4
:1049C00000F03E813B685B68012B0BD03B685B6865
:1049D000022B07D03B685B68112B03D03B685B68F8
:1049E000122B30D17B689B683B617B695B000322A3
:1049F00002FA03F3DB433A6913403B613B68DA6830
:104A00007B695B0002FA03F33A6913433B617B68FD
:104A10003A699A607B685B683B6101227B6902FAB4
:104A200003F3DB433A6913403B613B685B681B0956
:104A300003F001027B6902FA03F33A6913433B6115
:104A40007B683A695A607B68DB683B617B695B0025
:104A5000032202FA03F3DB433A6913403B613B68EC
:104A60009A687B695B0002FA03F33A6913433B617E
:104A70007B683A69DA603B685B68022B03D03B686D
:104A80005B68122B23D17B69DA087B68083253F804
:104A900022303B617B6903F007039B000F2202FA7F
:104AA00003F3DB433A6913403B613B681A697B6956
:104AB00003F007039B0002FA03F33A6913433B61D7
:104AC0007B69DA087B680832396943F822107B6811
:104AD0001B683B617B695B00032202FA03F3DB4343
:104AE0003A6913403B613B685B6803F003027B69F2
:104AF0005B0002FA03F33A6913433B617B683A694E
:104B00001A603B685B6803F08053002B00F09880CC
:104B1000544A7B699B08023352F823303B617B691E
:104B200003F003039B000F2202FA03F3DB433A690D
:104B300013403B617B68B3F1904F19D07B684A4AC0
:104B4000934213D07B68494A93420DD07B68484A10
:104B5000934207D07B68474A934201D1042308E07F
:104B6000072306E0032304E0022302E0012300E020
:104B700000237A6902F00302920093403A691343DA
:104B80003B6138497B699B0802333A6941F823202D
:104B9000394BD3F880303B61FB68DB433A69134003
:104BA0003B613B685B6803F48033002B03D03A69B8
:104BB000FB6813433B61304A3B69C2F880302E4B9F
:104BC000D3F884303B61FB68DB433A6913403B61B7
:104BD0003B685B6803F40033002B03D03A69FB6841
:104BE00013433B61244A3B69C2F88430224B1B6863
:104BF0003B61FB68DB433A6913403B613B685B68A0
:104C000003F48013002B03D03A69FB6813433B6124
:104C1000194A3B691360184B5B683B61FB68DB43D7
:104C20003A6913403B613B685B6803F40013002B57
:104C300003D03A69FB6813433B610F4A3B695360F9
:104C40007B6901337B613B681A687B6922FA03F355
:104C5000002B7FF4ABAE00BF00BF1C37BD465DF834
:104C6000047B704700000140000400480008004831
:104C7000000C0048001000480008005880B483B0C1
:104C800000AF78600B467B8013467B707B78002BEF
:104C900003D07A887B689A6102E07A887B689A629E
:104CA00000BF0C37BD465DF8047B704780B582B00D
:104CB00000AF0346FB80084BDA68FB881340002BEB
:104CC00006D0054AFB88D360FB881846FBF755FEE3
:104CD00000BF0837BD4680BD0008005880B582B0CF
:104CE00000AF0A4BDB687B60084B1A687B68DB43CC
:104CF000064913400B60054A7B685360786800F0F2
:104D000007F800BF0837BD4680BD00BF001500583A
:104D100080B483B000AF786000BF0C37BD465DF84B
:104D2000047B704780B584B000AF78600023FB73CC
:104D30007B68002B1ED0134BBB607B6893F8383028
:104D4000DBB2002B02D17868FDF792F9B86800F069
:104D50005BF8BB681B6843F00112BB681A60786897
:104D600000F02CF87B6800225A637B68012283F8EC
:104D7000382001E00123FB73FB7B18461037BD464A
:104D800080BD00BF000C005880B485B000AFF86053
:104D9000B9601346FB7100BF1437BD465DF8047B54
:104DA000704780B485B000AFF860B9601346FB71FE
:104DB00000BF1437BD465DF8047B704780B485B0F2
:104DC00000AF78600023FB600FE07A68FB689B000F
:104DD00013440B4A5A607A68FB6806339B001344FD
:104DE000084A5A60FB680133FB60FB68052BECD96D
:104DF00000BF00BF1437BD465DF8047B704700BF9D
:104E0000894D0008A34D000880B483B000AF7860DE
:104E10007B6800221A607B684FF03F125A607B6803
:104E20003F229A6000BF0C37BD465DF8047B704797
:104E300080B400AF054B1B68044A43F480731360D1
:104E400000BFBD465DF8047B704700BF00040058FA
:104E500080B400AF044B1B6803F4C0631846BD4622
:104E60005DF8047B704700BF0004005880B400AFB9
:104E70004FF0B0431B6803F48013B3F5801F01D1DA
:104E8000012300E000231846BD465DF8047B70470F
:104E900080B400AF4FF0B0431B684FF0B04243F412
:104EA0008033136000BFBD465DF8047B704780B45B
:104EB00000AF4FF0B0431B684FF0B04223F4803393
:104EC000136000BFBD465DF8047B704780B400AF3F
:104ED0004FF0B0431B6803F40033B3F5003F01D13A
:104EE000012300E000231846BD465DF8047B7047AF
:104EF00080B400AF4FF0B0431B684FF0B04243F4B2
:104F00008073136000BFBD465DF8047B704780B4BA
:104F100000AF4FF0B0431B684FF0B04223F48073F2
:104F2000136000BFBD465DF8047B704780B400AFDE
:104F30004FF0B0431B6803F48063B3F5806F01D179
:104F4000012300E000231846BD465DF8047B70474E
:104F500080B483B000AF78604FF0B0435B6823F05B
:104F6000FE427B681B064FF0B04113434B6000BF0D
:104F70000C37BD465DF8047B704780B400AF4FF03E
:104F8000B043D3F898304FF0B04243F00103C2F879
:104F9000983000BFBD465DF8047B704780B400AF19
:104FA0004FF0B043D3F898304FF0B04223F00103F4
:104FB000C2F8983000BFBD465DF8047B704780B4EE
:104FC00000AF4FF0B043D3F8983003F00203022B48
:104FD00001D1012300E000231846BD465DF8047BA3
:104FE000704780B400AF4FF0B043D3F890304FF02B
:104FF000B04243F00103C2F8903000BFBD465DF8F7
:10500000047B704780B400AF4FF0B043D3F89030CA
:105010004FF0B04223F00103C2F8903000BFBD460C
:105020005DF8047B704780B400AF4FF0B043D3F815
:1050300090304FF0B04243F00403C2F8903000BF0C
:10504000BD465DF8047B704780B400AF4FF0B043BD
:10505000D3F890304FF0B04223F00403C2F8903000
:1050600000BFBD465DF8047B704780B400AF4FF0D1
:10507000B043D3F8903003F00203022B01D1012397
:1050800000E000231846BD465DF8047B704780B4FD
:1050900000AF4FF0B043D3F894304FF0B04243F03C
:1050A0000103C2F8943000BFBD465DF8047B704731
:1050B00080B400AF4FF0B043D3F894304FF0B0421B
:1050C00023F00103C2F8943000BFBD465DF8047BB5
:1050D000704780B400AF4FF0B043D3F8943003F082
:1050E0000203022B01D1012300E000231846BD4634
:1050F0005DF8047B704780B400AF4FF0B043D3F845
:1051000094304FF0B04243F00403C2F8943000BF33
:10511000BD465DF8047B704780B400AF4FF0B043EC
:10512000D3F894304FF0B04223F00403C2F8943027
:1051300000BFBD465DF8047B704780B400AF4FF000
:10514000B043D3F8943003F00803082B01D10123B6
:1051500000E000231846BD465DF8047B704780B42C
:1051600083B000AF78604FF0B043D3F8943023F4AD
:1051700070627B681B024FF0B0411343C1F894305A
:1051800000BF0C37BD465DF8047B704780B400AFAC
:105190004FF0B0431B684FF0B04243F0010313607F
:1051A00000BFBD465DF8047B704780B400AF4FF090
:1051B000B0431B684FF0B04223F00103136000BFFF
:1051C000BD465DF8047B704780B400AF4FF0B0433C
:1051D0001B6803F00203022B01D1012300E000232E
:1051E0001846BD465DF8047B704780B483B000AFBD
:1051F00078604FF0B0431B6823F0F0024FF0B041ED
:105200007B6813430B6000BF0C37BD465DF8047B21
:10521000704780B483B000AF4FF0B0431B6803F019
:10522000F0037B607B68B02B01D9B0237B607B6887
:1052300018460C37BD465DF8047B704780B483B0D8
:1052400000AF78604FF0B0435B6823F47F427B6827
:105250001B024FF0B04113434B6000BF0C37BD46FB
:105260005DF8047B704780B483B000AF78604FF086
:10527000B0439B6823F003024FF0B0417B681343B7
:105280008B6000BF0C37BD465DF8047B704780B46F
:1052900000AF4FF0B0439B6803F00C031846BD46C7
:1052A0005DF8047B704780B483B000AF78604FF046
:1052B000B0439B6823F0F0024FF0B0417B6813438A
:1052C0008B6000BF0C37BD465DF8047B704780B42F
:1052D00083B000AF78604FF0B043D3F8083123F0CB
:1052E000F0024FF0B0417B681343C1F8083100BFB2
:1052F0000C37BD465DF8047B704780B483B000AFC7
:1053000078604FF0B043D3F8083123F00F027B6888
:105310001B094FF0B0411343C1F8083100BF0C37EF
:10532000BD465DF8047B704780B483B000AF786001
:105330004FF0B0439B6823F4E0624FF0B0417B68CC
:1053400013438B6000BF0C37BD465DF8047B70478C
:1053500080B483B000AF78604FF0B0439B6823F413
:1053600060524FF0B0417B6813438B6000BF0C3735
:10537000BD465DF8047B704780B400AF4FF0B0438A
:105380009B6803F0F0031846BD465DF8047B704748
:1053900080B400AF4FF0B043D3F808311B0103F0E5
:1053A000F0031846BD465DF8047B704780B400AF3B
:1053B0004FF0B0439B6803F4E0631846BD465DF8C8
:1053C000047B704780B400AF4FF0B0439B6803F498
:1053D00060531846BD465DF8047B704780B400AF4B
:1053E0004FF0B0431B684FF0B04243F0807313603E
:1053F00000BFBD465DF8047B704780B400AF4FF03E
:10540000B0431B684FF0B04223F08073136000BFBD
:10541000BD465DF8047B704780B400AF4FF0B043E9
:105420001B6803F00073B3F1007F01D1012300E09A
:1054300000231846BD465DF8047B704780B400AF7A
:105440004FF0B043DB681B0A03F07F031846BD46EC
:105450005DF8047B704780B400AF4FF0B043DB6869
:1054600003F060431846BD465DF8047B704780B486
:1054700000AF4FF0B043DB6803F070031846BD4641
:105480005DF8047B704780B400AF4FF0B043DB6839
:1054900003F003031846BD465DF8047B704780B4F3
:1054A00000AF4FF0B0439B6803F48033B3F5803F07
:1054B00001D1012300E000231846BD465DF8047BBE
:1054C000704780B400AF4FF0B043D3F8083103F415
:1054D0000033B3F5003F01D1012300E0002318465B
:1054E000BD465DF8047B704780B400AF4FF0B04319
:1054F000D3F8083103F48033B3F5803F01D10123A1
:1055000000E000231846BD465DF8047B704780B478
:1055100000AF4FF0B0439B6803F40033B3F5003F96
:1055200001D1012300E000231846BD465DF8047B4D
:10553000704780B400AF4FF0B0439B6803F4802302
:10554000B3F5802F01D1012300E000231846BD46AA
:105550005DF8047B7047000090B58DB000AF7860B7
:105560007B68002B01D101237EE37B681B6803F07D
:105570002003002B00F09280FFF789FEF862FFF70E
:1055800082FFB862FB6A002B05D0FB6A0C2B4CD162
:10559000BB6A012B49D1FFF717FE0346002B05D04C
:1055A0007B68DB69002B01D101235DE37B685C6ACA
:1055B000FFF72FFE03469C4214D97B685B6A1846AE
:1055C00000F042FD0346002B01D001234CE37B6831
:1055D0005B6A1846FFF709FE7B681B6A1846FFF7EF
:1055E0002DFE13E07B685B6A1846FFF7FEFD7B68C3
:1055F0001B6A1846FFF722FE7B685B6A184600F0BC
:1056000023FD0346002B01D001232DE300F0DCFC39
:105610000346B34A1360B34B1B681846FEF734FCCD
:105620000346002B39D001231EE37B68DB69002B86
:105630001ED0FFF7ABFDFEF775FC786208E0FEF7C1
:1056400071FC02467B6AD31A022B01D903230BE3B8
:10565000FFF7BAFD0346002BF1D07B685B6A184662
:10566000FFF7C3FD7B681B6A1846FFF7E7FD15E0EF
:10567000FFF79BFDFEF756FC786208E0FEF752FC50
:1056800002467B6AD31A022B01D90323ECE2FFF70F
:105690009BFD0346002BF1D100E000BF7B681B6837
:1056A00003F00103002B4ED0FFF7F1FD3862FFF746
:1056B000EAFEF8613B6A082B05D03B6A0C2B0DD142
:1056C000FB69032B0AD1FFF701FC0346002B39D0FD
:1056D0007B685B68002B35D10123C5E27B685B6882
:1056E000B3F5803F02D1FFF7D3FB01E0FFF7DFFB0B
:1056F0007B685B68002B12D0FEF714FC786208E030
:10570000FEF710FC02467B6AD31A642B01D90323EF
:10571000AAE2FFF7DBFB0346002BF1D013E0FEF714
:1057200001FC786208E0FEF7FDFB02467B6AD31AB3
:10573000642B01D9032397E2FFF7C8FB0346002B34
:10574000F1D100E000BF7B681B6803F00203002B6F
:1057500051D0FFF79CFDB861FFF795FE7861BB69FA
:10576000042B05D0BB690C2B13D17B69022B10D104
:10577000FFF7DCFB0346002B05D07B68DB68002BC2
:1057800001D1012370E27B681B691846FFF7E0FB3B
:1057900031E07B68DB68002B19D0FFF7A9FBFEF72F
:1057A000C1FB786208E0FEF7BDFB02467B6AD31AB4
:1057B000022B01D9032357E2FFF7B8FB0346002B66
:1057C000F1D07B681B691846FFF7C2FB13E0FFF7B7
:1057D0009EFBFEF7A7FB786208E0FEF7A3FB0246FC
:1057E0007B6AD31A022B01D903233DE2FFF79EFB0C
:1057F0000346002BF1D17B681B6803F00803002BE4
:1058000006D17B681B6803F01003002B00F0A38017
:105810007B685B69002B76D07B681B6803F0100304
:10582000002B46D0FFF755FC0346002B13D1FFF7A2
:105830002EFCFEF777FB786208E0FEF773FB02466A
:105840007B6AD31A022B01D903230DE2FFF741FC37
:105850000346002BF1D0FFF74EFCFEF763FB7862A6
:1058600008E0FEF75FFB02467B6AD31A032B01D9DF
:105870000323F9E1FFF761FC0346002BF1D07B68BD
:105880009B691846FFF76BFCFFF712FCFEF74AFB1B
:10589000786208E0FEF746FB02467B6AD31A022BC9
:1058A00001D90323E0E1FFF714FC0346002BF1D1FB
:1058B00051E0FFF7ECFBFEF735FB786208E0FEF7FE
:1058C00031FB02467B6AD31A022B01D90323CBE1B9
:1058D000FFF7FFFB0346002BF1D0FFF71DFC0CE0A8
:1058E0001C00002020000020FEF71CFB02467B6A03
:1058F000D31A032B01D90323B6E1FFF71EFC03469D
:10590000002BF1D127E0FFF707FCFEF70BFB7862D5
:1059100008E0FEF707FB02467B6AD31A032B01D986
:105920000323A1E1FFF709FC0346002BF1D1FFF7A8
:10593000BFFBFEF7F7FA786208E0FEF7F3FA0246DB
:105940007B6AD31A022B01D903238DE1FFF7C1FB38
:105950000346002BF1D17B681B6803F00403002B86
:105960005BD0B54B1B6803F48073002B14D1FFF799
:105970005FFAFEF7D7FA786208E0FEF7D3FA02463C
:105980007B6AD31A022B01D903236DE1AA4B1B6852
:1059900003F48073002BF0D07B689B68012B02D14D
:1059A000FFF71FFB0CE07B689B68052B04D1FFF71A
:1059B0003AFBFFF716FB03E0FFF724FBFFF744FB7E
:1059C0007B689B68002B14D0FEF7ACFA78620AE083
:1059D000FEF7A8FA02467B6AD31A41F28832934254
:1059E00001D9032340E1FFF740FB0346002BEFD032
:1059F00013E0FEF797FA78620AE0FEF793FA0246A0
:105A00007B6AD31A41F28832934201D903232BE1F6
:105A1000FFF72BFB0346002BEFD17B681B6803F0DD
:105A20004003002B2CD07B689B6A002B14D0FFF71F
:105A3000A4FAFEF777FA786208E0FEF773FA0246F6
:105A40007B6AD31A022B01D903230DE1FFF7B7FAC2
:105A50000346002BF1D013E0FFF7A0FAFEF762FA3D
:105A6000786208E0FEF75EFA02467B6AD31A022BE0
:105A700001D90323F8E0FFF7A2FA0346002BF1D186
:105A80007B68DB6A002B00F0EE80FFF700FC3861DA
:105A90004FF0B043DB68FB607B68DB6A022B40F0B1
:105AA000AF80FB6803F003027B681B6B9A4223D133
:105AB000FB6803F070027B685B6B9A421CD1FB6849
:105AC0001B0A03F07F027B689B6B9A4214D1FB6830
:105AD00003F478127B68DB6B9A420DD1FB6803F00C
