:020000040800F2
:100000000000032005290008B71B0008C51B0008D5
:100010005929000859290008592900080000000042
:10002000000000000000000000000000CB1B0008E2
:10003000D91B000800000000E71B0008F51B0008A2
:10004000592900085929000859290008391C0008B5
:100050005929000859290008592900085929000878
:100060005929000859290008592900085929000868
:100070005929000859290008592900085929000858
:10008000592900085929000859290008251C000889
:10009000111C00085929000859290008592900088D
:1000A0005929000859290008592900085929000828
:1000B0005929000859290008592900085929000818
:1000C0005929000859290008592900085929000808
:1000D00059290008592900085929000859290008F8
:1000E000011C00085929000859290008592900084D
:1000F000511C0008451C000859290008592900080E
:1001000059290008592900085929000859290008C7
:1001100059290008592900085929000859290008B7
:1001200059290008592900085929000859290008A7
:0C01300059290008592900085929000825
:10013C0010B5054C237833B9044B13B10448AFF315
:10014C0000800123237010BD9C01002000000000E2
:10015C00A894000808B5034B1BB103490348AFF33F
:10016C00008008BD00000000A0010020A894000839
:10017C00034613F8012B002AFBD1181A01387047DB
:10018C0080B483B000AF7860064BD3F8902005495B
:10019C007B681343C1F8903000BF0C37BD465DF847
:1001AC00047B70470008005880B485B000AF7860BD
:1001BC004FF0B043DA6C4FF0B0417B681343CB6423
:1001CC004FF0B043DA6C7B681340FB60FB6800BFF8
:1001DC001437BD465DF8047B704780B485B000AF22
:1001EC0078604FF0B043D3F84C214FF0B0417B68AE
:1001FC001343C1F84C314FF0B043D3F84C217B681A
:10020C001340FB60FB6800BF1437BD465DF8047BF0
:10021C00704780B500AF02F009FE02F00DFE4FF4FE
:10022C008030FFF7ADFF00F021F800F0BFF800BF01
:10023C0080BD0000B0B588B000AF0B4B3C1D1D4617
:10024C000FCD0FC495E8070003C422800234130CB1
:10025C00237008F0D9FB3B1D184607F037FF00BF91
:10026C002037BD46B0BD00BFC094000880B588B033
:10027C0000AF3B1D00221A605A609A60DA601A6166
:10028C000023BB8300237B8300233B830023FB776A
:10029C0033E0FB7F424ADB0013449B79002B28D0D0
:1002AC00FB7F3F4A52F833303E4A93420FD03E4ACE
:1002BC00934215D0B3F1904F00D01BE0FB7F384A2E
:1002CC00DB0013449A88BB8B1343BB8312E0FB7F88
:1002DC00334ADB0013449A887B8B13437B8309E0FE
:1002EC00FB7F2F4ADB0013449A883B8B13433B83E1
:1002FC0000E000BFFB7F0133FB77FB7F212BC8D9CC
:10030C000023FB600123BB6003233B61BB8B002BF1
:10031C0014D0BB8B7B600120FFF746FF0120FFF759
:10032C005CFF3B1D19464FF0904002F023FFBB8B46
:10033C00002219464FF0904003F08CF87B8B002B79
:10034C0012D07B8B7B600220FFF72EFF0220FFF781
:10035C0044FF3B1D1946134802F00CFF7B8B002217
:10036C001946104803F076F83B8B002B13D03B8BCF
:10037C007B600420FFF718FF0420FFF72EFF3B1DC6
:10038C001946094802F0F6FE3B8B00221946064836
:10039C0003F060F800BF00BF2037BD4680BD00BF32
:1003AC0014950008000400480008004880B400AF11
:1003BC0000BFBD465DF8047B7047000080B483B07D
:1003CC0000AF7860074BD3F8803023F00702054963
:1003DC007B681343C1F8803000BF0C37BD465DF815
:1003EC00047B70470004005880B483B000AF786081
:1003FC004FF0B0439B6823F400424FF0B0417B6850
:10040C0013438B6000BF0C37BD465DF8047B70470F
:10041C0080B500AF00F014F80849002000F0F6FC9D
:10042C00FFF7F7FE0121012008F090FD00F04EF8D7
:10043C0000F05CF800F014F800BF80BDC40100208F
:10044C0080B500AF4FF40040FFF7CEFF08F06CFD15
:10045C000420FFF7B3FF03F0E7FD00BF80BD0000F1
:10046C0080B588B000AF08F019F9114A00210820B6
:10047C0008F0AEFE0F4B3B600F4B7B603B461946C2
:10048C000E4807F0D1FF0E4BBB600E4BFB600E4BC2
:10049C003B6140F23C537B6107F10803184608F0BE
:1004AC003FFA08F0F5F800BF2037BD4680BD00BF0D
:1004BC006D84000824070320090500081F050008A7
:1004CC003C09032030080320E801032080B500AF6D
:1004DC00002002F055FA012002F052FA022002F03C
:1004EC004FFA012002F096FA00BF80BD80B500AF34
:1004FC000121002002F0C2FA00BF80BD80B483B09D
:10050C0000AF0346FB7100BF0C37BD465DF8047BA2
:10051C00704780B582B000AF7860FFF78BFE00218A
:10052C00012008F013FD01F0B7FB00BF0837BD46F2
:10053C0080BD80B500AF08F037FD00BF80BD80B531
:10054C0082B000AF786039604FF0FF3008F060FD8A
:10055C0000BF0837BD4680BD80B582B000AF786063
:10056C000021082008F054FE00BF0837BD4680BDAE
:10057C0080B582B000AF7860022008F0AFFE00BFFB
:10058C000837BD4680BD80B582B000AF78600220D0
:10059C0008F0C2FE00BF0837BD4680BD80B582B0F2
:1005AC0000AF0346FB80FB88B3F5806F00D002E000
:1005BC0001F06AFC00BF00BF0837BD4680BD0000DB
:1005CC0080B483B000AF7860064BD3F88020054927
:1005DC007B681343C1F8803000BF0C37BD465DF813
:1005EC00047B70470008005880B483B000AF78607B
:1005FC00054B1A6804497B6813430B6000BF0C372A
:10060C00BD465DF8047B70470008005880B483B089
:10061C0000AF0D4B9B6A9BB27B600B4B9B6A9BB2F2
:10062C003B6005E03B687B60074B9B6A9BB23B6081
:10063C007A683B689A42F5D13B6818460C37BD4640
:10064C005DF8047B704700BF0028004080B485B083
:10065C0000AF03460A46FB711346BB71BA791D49BC
:10066C0013465B001344DB000B4415331B78FB7300
:10067C00FB7B062B09D0FA7B164913465B0013440F
:10068C00DB000B441433FA791A70FA7911491346CA
:10069C005B001344DB000B441533FA7B1A70FA79B8
:1006AC000C4913465B001344DB000B441433BA793A
:1006BC001A70BA79074913465B001344DB000B44EC
:1006CC001533FA791A7000BF1437BD465DF8047BF8
:1006DC00704700BF3400002080B485B000AF0346E3
:1006EC000A46FB711346BB71294B1B78DBB2BA79F6
:1006FC009A4232D0BA79274913465B001344DB0087
:10070C000B4414331B78FB73FA7B224913465B00B2
:10071C001344DB000B441533FA791A70FA791D492E
:10072C0013465B001344DB000B441533BA791A7083
:10073C00FA79184913465B001344DB000B4414335D
:10074C00FA7B1A70BA79134913465B001344DB0029
:10075C000B441433FA791A7014E0FA790D491346E4
:10076C005B001344DB000B441533BA791A70BA7969
:10077C00084913465B001344DB000B441433FA792D
:10078C001A7000BF1437BD465DF8047B704700BF7C
:10079C00C40000203400002080B584B000AF0346B4
:1007AC00FB714E4B1B78DBB2062B18D14B4B1B78D5
:1007BC00DAB24B4B1A70494AFB791370FA794949F2
:1007CC0013465B001344DB000B44153306221A70EE
:1007DC00454B4FF0FF321A600023FB8178E000F0AC
:1007EC0009F90346FB81FA793E4913465B00134431
:1007FC00DB000B4408331968FB89FA791944394832
:10080C0013465B001344DB00034408331960FA7988
:10081C00344913465B001344DB000B4408331B685C
:10082C00BB602E4B1B78DBB219462E4A0B465B0085
:10083C000B44DB00134408331B68BA689A4237D365
:10084C00264B1B787B737A7B264913465B0013443B
:10085C00DB000B4415331B783B7313E07A7B214987
:10086C0013465B001344DB000B4415331B787B737E
:10087C007A7B1C4913465B001344DB000B44153395
:10088C001B783B733B7B062B0BD03A7B15491346ED
:10089C005B001344DB000B4408331B68BA689A42B4
:1008AC00DCD27A7BFB7911461846FFF7CFFE0FE0BE
:1008BC000A4B1B78DAB2FB7911461846FFF70CFF8E
:1008CC00064B1B78DAB2064B1A70044AFB7913708C
:1008DC00FB8918461037BD4680BD00BFC400002000
:1008EC00C500002034000020C800002080B485B072
:1008FC0000AF03460A46FB711346BB71394B1B789C
:10090C00DBB2FA799A4211D1364B1B78DAB2364BFC
:10091C001A70FA79354913465B001344DB000B441B
:10092C0015331B78DAB22F4B1A703EE0FA792F4947
:10093C0013465B001344DB000B4414331B78FB732E
:10094C00FA792A4913465B001344DB000B44153338
:10095C001B78BB73F979FA7B24480B465B000B447C
:10096C00DB00034415331B78D8B2204913465B00D7
:10097C001344DB000B44153302461A70BB7B062B69
:10098C0013D0F979BA7B19480B465B000B44DB009A
:10099C00034414331B78D8B2144913465B00134438
:1009AC00DB000B44143302461A70FA790F491346D4
:1009BC005B001344DB000B440C3301221A70094B0F
:1009CC001B78DBB2062B07D1BB79002B04D1084B6B
:1009DC004FF0FF321A6000BF00BF1437BD465DF800
:1009EC00047B7047C4000020C500002034000020A8
:1009FC00C800002080B582B000AF1A4B1B68B3F161
:100A0C00FF3F26D0FFF702FE7860164B1B687A6812
:100A1C009A4205D8134B1A687B68D31A7B600AE09C
:100A2C00114B1B881A467B68D31A3B600D4B1B6815
:100A3C003A6813447B600D4B1B781A467B6802FBAB
:100A4C0003F37B600A4B1B781A467B68D3407B60B0
:100A5C0001E000237B607B689BB218460837BD46DB
:100A6C0080BD00BFC8000020BE010020BD010020D9
:100A7C00BC01002080B582B000AF0346FB80FB8830
:100A8C00002B08D1FFF7C2FD0246244B1A6003204D
:100A9C0002F053FB3EE0FB88012B03D8204B1B7864
:100AAC00012B02D0FB88013BFB8000BF1D4B1B6858
:100ABC001B68DB6803F00403002BF7D0194B1B6891
:100ACC001B68DB68DAB2174B1B681B6862F4906218
:100ADC00DA60154B4FF40022DA60032002F03BFB86
:100AEC00124B5B691B0C1B04FA88104913434B61B6
:100AFC00FFF78CFD0246094B1A600A4B1B681B68FA
:100B0C009A68084B1B681B6842F480629A60AFF3CA
:100B1C00008000BF0837BD4680BD00BFC800002064
:100B2C00BC010020B801002000080058002800403B
:100B3C0080B584B000AF474B9B6803F48063B3F57A
:100B4C00806F08D100BF444B1B681B68DB6803F047
:100B5C000403002BF7D1404B1B681B689A683E4B73
:100B6C001B681B6822F480629A603C4B1B78FB73F9
:100B7C00FA7B3B4913465B001344DB000B44083300
:100B8C001B68BB60FFF736FF0346FB80FB88BA6827
:100B9C009A4205D20023BB81324B01221A704DE0E0
:100BAC00FB88314A128892B213441A46BB689342AE
:100BBC0006D92D4B1B88BB812A4B00221A703DE0B5
:100BCC00BB689AB2FB88D31ABB81264B01221A70E0
:100BDC0034E0FA7B224913465B001344DB000B44E0
:100BEC0008331A68FB889A420AD2FA7B1C491346CE
:100BFC005B001344DB000B44083300221A6013E043
:100C0C00FA7B174913465B001344DB000B44083393
:100C1C001968FB88FA7BC91A114813465B00134408
:100C2C00DB00034408331960FA7B0D4913465B0063
:100C3C001344DB000B4415331B78FB73FB7B062B37
:100C4C00C7D1BB891846FFF715FF00BF1037BD464B
:100C5C0080BD00BF00280040B8010020C400002067
:100C6C0034000020CC000020C001002080B58AB0E8
:100C7C0000AFEFF310837B617B697B6272B65E4BD6
:100C8C001B681B68CA225A625B4B1B681B68532289
:100C9C005A62594B1B681B689A68574B1B681B6838
:100CAC0022F480629A60554B1B7887F8233097F8B2
:100CBC002320534913465B001344DB000B440C33D5
:100CCC001B78DBB2022B70D197F823204C491346CA
:100CDC005B001344DB000B441B68FB6197F823207B
:100CEC00474913465B001344DB000B4410331B686D
:100CFC00BB61444B1B78DBB2002B4ED097F8232002
:100D0C003F4913465B001344DB000B440D331B7847
:100D1C00DBB2012B25D197F8233001211846FFF7C0
:100D2C00E5FD7B6A3B613B6983F3108897F82320D0
:100D3C00334913465B001344DB000B4404331A683D
:100D4C0097F823301146184600F046FA2A4B1B68D8
:100D5C001B68CA225A62284B1B681B6853225A62B2
:100D6C0013E07B6AFB60FB6883F3108897F82330F1
:100D7C00184600F0A7F9204B1B681B68CA225A6260
:100D8C001D4B1B681B6853225A6297F82330FA6973
:100D9C001946B86900F0A6FA24E0FFF7C9FE7B6A91
:100DAC00BB60BB6883F310881CE000BF124B1B6850
:100DBC001B68DB6803F00403002BF7D00E4B1B6899
:100DCC001B68DB68DAB20C4B1B681B6862F4906220
:100DDC00DA600D4B4FF40022DA607B6A7B607B6833
:100DEC0083F31088044B1B681B68FF225A6200BFF8
:100DFC002837BD4680BD00BFB8010020C4000020CC
:100E0C0034000020CC0000200008005880B588B0C9
:100E1C0000AF03463960FB71644A3B681360634B57
:100E2C001B681B68CA225A62604B1B681B685322E2
:100E3C005A625F4B9B685E4A43F0200393605C4BA5
:100E4C009B68DBB203F00703DBB2C3F10403DAB235
:100E5C00584B1A70564B1B6903F4FE034FF4FE02F9
:100E6C003A613A6992FAA2F2FA60FA687A617A699E
:100E7C00002A01D1202203E07A69B2FA82F2D2B2BE
:100E8C00D340DBB20133DAB24B4B1A70484B1B69BF
:100E9C009BB2C3F30E039BB201339AB2474B1A8039
:100EAC00464B1B88013B444A127802FB03F3A3F523
:100EBC00A073404A1278D340BB61BB694FF6FE72F7
:100ECC00934204D93E4B4FF6FF721A8003E0BB6984
:100EDC009AB23B4B1A804FF40020FFF785FB4FF47E
:100EEC000020FFF76DFBFB79002B43D1354B012222
:100EFC001A70354B4FF0FF321A600023FB770CE071
:100F0C00FA7F324913465B001344DB000B440C336D
:100F1C0000221A70FB7F0133FB77FB7F052BEFD987
:100F2C002B4B06221A70214B1B681B689A681F4BAF
:100F3C001B681B6822F480629A601C4B1B681B6840
:100F4C00DB68DAB2194B1B681B6862F49062DA60DA
:100F5C00204B4FF40022DA60032002F0FCF8134B14
:100F6C001B681B689A68114B1B681B6842F4804213
:100F7C009A600AE00D4B1B681B68DB6803F4806306
:100F8C00002B02D0032002F0D8F8084B1B681B681A
:100F9C00FF225A6200220321032002F08CF8032066
:100FAC0002F0A3F800BF2037BD4680BDB801002079
:100FBC0000280040BC010020BD010020BE01002023
:100FCC00C0010020CC000020C8000020340000200C
:100FDC00C40000200008005880B48BB000AFF8604B
:100FEC00B9603B601346FB71002387F82630EFF3A2
:100FFC001083FB61FB693B6272B604E097F8263004
:10100C00013387F8263097F82630052B0CD897F843
:10101C0026202B4913465B001344DB000B440C3396
:10102C001B78DBB2002BE9D197F82630062B37D092
:10103C0097F82620224913465B001344DB000B442F
:10104C000C3301221A703B6ABB61BB6983F31088B5
:10105C0097F826201A4913465B001344DB000B4417
:10106C001033FA681A6097F82620154913465B006E
:10107C001344DB000B440D33FA791A7097F82620D1
:10108C000F4913465B001344DB000B443A681A60AB
:10109C00BB6897F826201A70002387F8273007E0E2
:1010AC003B6A7B617B6983F31088012387F82730C7
:1010BC0097F8273018462C37BD465DF8047B7047EF
:1010CC003400002080B586B000AF0346FB71EFF30F
:1010DC001083FB60FB687B6172B6032002F013F88F
:1010EC00374B1B681B68CA225A62354B1B681B683E
:1010FC0053225A62FA79334913465B001344DB00DE
:10110C000B440C331B78DBB2022B48D1FB7900214A
:10111C001846FFF7EBFB2C4B1B78FB74FB7C062B68
:10112C0035D12A4B9B6803F48063B3F5806F08D1EB
:10113C0000BF234B1B681B68DB6803F00403002B08
:10114C00F7D11F4B1B681B689A681D4B1B681B68EB
:10115C0022F480629A6000BF194B1B681B68DB6825
:10116C0003F00403002BF7D0154B1B681B68DB68DE
:10117C00DAB2134B1B681B6862F49062DA60144B92
:10118C004FF40022DA60032001F0E5FF07E0114B79
:10119C001B78DBB2FA7C9A4201D0FFF7C9FC084BF2
:1011AC001B681B68FF225A62032001F09EFF7B69BB
:1011BC00BB60BB6883F3108800BF1837BD4680BD89
:1011CC00B801002034000020C4000020002800409A
:1011DC0000080058C500002080B586B000AF03465B
:1011EC003960FB71FA793B4913465B001344DB0011
:1011FC000B440C331B78DBB2022B03D1FB79184662
:10120C00FFF760FFEFF31083FB60FB687B6172B646
:10121C00032001F078FF304B1B681B68CA225A620E
:10122C002D4B1B681B6853225A62FA7929491346C5
:10123C005B001344DB000B440C3302221A70FA7966
:10124C00244913465B001344DB000B4408333A6813
:10125C001A60FA791F4913465B001344DB000B44F8
:10126C0004333A681A60FB791846FFF795FA03467F
:10127C007B821A4B1B787B74194B1B78DBB27A7C04
:10128C009A4202D0FFF754FC13E0FA791149134645
:10129C005B001344DB000B44083319687B8AFA7932
:1012AC00C91A0C4813465B001344DB000344083393
:1012BC001960094B1B681B68FF225A62032001F05E
:1012CC0014FF7B69BB60BB6883F3108800BF1837C1
:1012DC00BD4680BD34000020B8010020C4000020B1
:1012EC00C500002080B584B000AFF8600B467A6072
:1012FC00FB727B68984700BF1037BD4680BD00006D
:10130C0080B483B000AF7860074BD3F880207B6843
:10131C00DB4305491340C1F8803000BF0C37BD4694
:10132C005DF8047B704700BF0008005880B483B0A0
:10133C0000AF7860074BD3F890207B68DB430549FE
:10134C001340C1F8903000BF0C37BD465DF8047BEC
:10135C00704700BF0008005880B400AF4FF0B04396
:10136C00D3F898304FF0B04243F00103C2F89830F4
:10137C0000BFBD465DF8047B704780B400AF4FF0F2
:10138C00B043D3F8983003F00203022B01D10123B0
:10139C0000E000231846BD465DF8047B704780B41E
:1013AC0000AF4FF0B043D3F890304FF0B04243F061
:1013BC000103C2F8903000BFBD465DF8047B704756
:1013CC0080B400AF4FF0B043D3F8903003F0020379
:1013DC00022B01D1012300E000231846BD465DF825
:1013EC00047B704780B483B000AF78604FF0B0439B
:1013FC00D3F8943023F440424FF0B0417B68134350
:10140C00C1F8943000BF0C37BD465DF8047B7047C3
:10141C0080B483B000AF78604FF0B043D3F8903015
:10142C0023F440724FF0B0417B681343C1F8903005
:10143C0000BF0C37BD465DF8047B704780B400AF2D
:10144C004FF0B043D3F890304FF0B04243F4004328
:10145C00C2F8903000BFBD465DF8047B704780B485
:10146C0000AF4FF0B043D3F890304FF0B04243F49C
:10147C008033C2F8903000BFBD465DF8047B7047E6
:10148C0080B400AF4FF0B043D3F890304FF0B0427F
:10149C0023F48033C2F8903000BFBD465DF8047B66
:1014AC00704780B400AF4FF0B043D3F8943003F0E2
:1014BC008063B3F1806F01D1012300E00023184653
:1014CC00BD465DF8047B704780B400AF4FF0B0436D
:1014DC00D3F8943003F08053B3F1805F01D1012332
:1014EC0000E000231846BD465DF8047B704780B4CD
:1014FC0085B000AF78604FF0B0431A6D4FF0B0413B
:10150C007B6813430B654FF0B0431A6D7B68134037
:10151C00FB60FB6800BF1437BD465DF8047B704769
:10152C0080B485B000AF78604FF0B0439A6D4FF047
:10153C00B0417B6813438B654FF0B0439A6D7B6869
:10154C001340FB60FB6800BF1437BD465DF8047B9D
:10155C00704780B483B000AF786039607B685A689C
:10156C003B681B041A437B685A6000BF0C37BD46AE
:10157C005DF8047B704780B483B000AF786039604D
:10158C007B685A683B681A437B685A6000BF0C370B
:10159C00BD465DF8047B704780B483B000AF7860C3
:1015AC0039607B685A693B681B041A437B685A6133
:1015BC0000BF0C37BD465DF8047B704780B483B028
:1015CC0000AF786039607B685A693B681A437B6866
:1015DC005A6100BF0C37BD465DF8047B704780B480
:1015EC0083B000AF786039607B683A689A6000BF5E
:1015FC000C37BD465DF8047B704780B483B000AFF8
:10160C00786039607B683A689A6100BF0C37BD46D8
:10161C005DF8047B7047000080B483B000AF786045
:10162C0039607B683A68203253F82230054A93427D
:10163C0001D0012300E0002318460C37BD465DF8AD
:10164C00047B70470004008080B483B000AF7860E6
:10165C007B68FF225A6200BF0C37BD465DF8047BE5
:10166C00704780B483B000AF78607B68CA225A623E
:10167C007B6853225A6200BF0C37BD465DF8047B71
:10168C00704780B483B000AF786039607B689B682A
:10169C0023F007023B681A437B689A6000BF0C3743
:1016AC00BD465DF8047B704780B500AF0A4B4FF424
:1016BC0000421A6101F020FB00F01CF800F086F8E3
:1016CC0000F00CF800F058F8FEF7A2FE4FF0FF30D7
:1016DC0007F09EFCFAE700BF0040005880B500AF51
:1016EC004FF0FF30FFF70CFE6FF05000FFF71EFEBF
:1016FC0000BF80BD80B500AF00F026F800F002F806
:10170C0000BF80BD80B500AF4FF48010FFF7EFFE37
:10171C003F210C48FFF763FF3F210A48FFF76DFF9D
:10172C003F210848FFF715FF3F210648FFF734FF1C
:10173C003F210448FFF71FFF3F210248FFF73EFF00
:10174C0000BF80BD000C005880B500AFFFF7A9FEAC
:10175C000346002B0DD0FFF7B7FE0346002B08D134
:10176C0002F052FC02F050FCFFF779FEFFF788FE06
:10177C0000BF00BF80BD000080B500AF02F044FC8C
:10178C0002F042FC4FF48070FFF742FEFFF756FE6A
:10179C000C4B0D4A1A600B4B0F229A60094B47F603
:1017AC00FF72DA60074803F0C0F90748FFF759FFEA
:1017BC0000210548FFF765FF0348FFF745FF00BF11
:1017CC0080BD00BFC40100200028004080B59AB045
:1017DC0000AF07F1180350220021184607F055FE00
:1017EC003B4600221A605A609A60DA601A615A61AC
:1017FC0005211F48FFF710FFFFF7AEFD00BFFFF7F5
:10180C00BCFD0346002BFAD04FF48073BB61002360
:10181C00FB6407F11803184602F0C6FE4FF0807007
:10182C00FFF77EFE00233B604FF000537B604BF6CE
:10183C007F33FB6022233B610023BB6020237B6151
:10184C003B46184603F026F802F0DEFB02F0DCFB08
:10185C00FFF7A5FD00BFFFF7B3FD0346002BFAD041
:10186C004FF48040FFF7BEFD00BF6837BD4680BD1A
:10187C000014005880B400AF00BFBD465DF8047B77
:10188C007047000080B483B000AF7860064B1B68D3
:10189C0023F0070204497B6813430B6000BF0C372D
:1018AC00BD465DF8047B70470004005880B400AF5F
:1018BC00034B1F229A6100BFBD465DF8047B704745
:1018CC000004005880B400AF074BD3F8883003F401
:1018DC000043B3F5004F01D1012300E0002318466B
:1018EC00BD465DF8047B70470004005880B400AF1F
:1018FC004FF0B0431B684FF0B04243F48033136099
:10190C0000BFBD465DF8047B704780B400AF4FF05C
:10191C00B0431B6803F40033B3F5003F01D101233E
:10192C0000E000231846BD465DF8047B704780B488
:10193C0000AF4FF0B0431B684FF0B04243F48073DC
:10194C00136000BFBD465DF8047B704780B400AFE8
:10195C004FF0B0431B6803F48063B3F5806F01D183
:10196C00012300E000231846BD465DF8047B704758
:10197C0080B483B000AF78604FF0B0439B6823F025
:10198C0003024FF0B0417B6813438B6000BF0C37F0
:10199C00BD465DF8047B704780B400AF4FF0B04398
:1019AC009B6803F00C031846BD465DF8047B70473A
:1019BC0080B483B000AF78604FF0B0435B6A23F023
:1019CC0003024FF0B0417B6813434B6200BF0C37EE
:1019DC00BD465DF8047B704780B400AF054B1B69B6
:1019EC00044A23F00403136100BFBD465DF8047B79
:1019FC00704700BF00ED00E080B400AF054B1B69E1
:101A0C00044A43F00403136100BFBD465DF8047B38
:101A1C00704700BF00ED00E080B483B000AF786089
:101A2C0039607B683A68203253F82230054A934279
:101A3C0001D0012300E0002318460C37BD465DF8A9
:101A4C00047B70470004008080B485B000AFF86060
:101A5C00B9607A607B6843F48061FB68BA6843F8CC
:101A6C00221000BF1437BD465DF8047B704780B56B
:101A7C0000AF01F0BBF9FFF719FF0320FFF702FFDE
:101A8C00FFF7BAFF30BF00BF80BD80B500AF01F0DB
:101A9C00BDF900BF80BD000080B500AF01F0A6F914
:101AAC0000BF03211448FFF7B7FF0346002BF8D102
:101ABC0004211148FFF7B0FF0346002B0CD1FFF7B0
:101ACC0001FF0346002B09D0002204210A48FFF72E
:101ADC00BBFF00F052F801E000F04FF800220321A8
:101AEC000548FFF7B1FF0220FFF7CCFEFFF784FF9C
:101AFC0030BF00BF80BD00BF0014005880B500AFE0
:101B0C00002204211448FFF79FFF00BF0321124855
:101B1C00FFF782FF0346002BF8D1FFF73DFF03468A
:101B2C00042B10D1FFF7E2FE00BFFFF7EEFE0346D9
:101B3C00002BFAD00220FFF71BFF00BFFFF72CFF92
:101B4C000346082BFAD1002203210348FFF77CFF40
:101B5C0001F05CF900BF80BD0014005880B500AFE7
:101B6C0001F044F9FFF738FF30BF00BF80BD80B5EE
:101B7C0000AF01F04BF900BF80BD80B500AFFFF79F
:101B8C00D6FE00BFFFF7E2FE0346002BFAD0012081
:101B9C00FFF7EEFE0020FFF70BFF00BFFFF7FCFE88
:101BAC000346042BFAD100BF80BD80B400AF00BF48
:101BBC00BD465DF8047B704780B400AFFEE780B48F
:101BCC0000AF00BFBD465DF8047B704780B400AF2A
:101BDC0000BFBD465DF8047B704780B400AF00BF0A
:101BEC00BD465DF8047B704780B500AF01F0DEF8B0
:101BFC0000BF80BD80B500AF4FF4806001F042FCA7
:101C0C0000BF80BD80B500AF024801F053FC00BF9F
:101C1C0080BD00BF1403002080B500AF024801F066
:101C2C0049FC00BF80BD00BF1403002080B500AF8D
:101C3C00FFF71CF800BF80BD80B500AF00F034FD8D
:101C4C0000BF80BD80B500AF00F0F6FC00BF80BDCA
:101C5C0080B400AF034B1B681846BD465DF8047B8F
:101C6C00704700BF8075FF1F80B400AF034B1B682B
:101C7C00DBB21846BD465DF8047B70478475FF1FC8
:101C8C0080B400AF034B1B681B0A1846BD465DF8B9
:101C9C00047B70478475FF1FB0B58CB000AF2A4B26
:101CAC003C461D460FCD0FC40FCD0FC495E80F0059
:101CBC0007C4237000F0EEF80121022007F046F96A
:101CCC00224A0021042007F083FA3B46184606F00E
:101CDC00E6F90346002B01D0FFF7CCFD00F0F0F83D
:101CEC0005F044FA1A4B002283F88020184B4FF66B
:101CFC00FF72DA82174A0021012007F069FA0620E8
:101D0C0006F0D8F800F040FB134B002213490020DA
:101D1C00FFF762F9124B002212490020FFF75CF921
:101D2C000B4B00225A760A4B00221A760E4B80225D
:101D3C001A800E4BA0221A80012000F083F900BFFC
:101D4C003037BD46B0BD00BFDC94000841810008AF
:101D5C00D0000020B9210008F12100085101002019
:101D6C0001220008520100205401002056010020DD
:101D7C0080B588B000AF78607B680133FB61FB698C
:101D8C001B783E2B24D0FF2B56D0052B00D072E0B5
:101D9C00FB690233FB60FB68B3F801309AB2384B35
:101DAC00DB8A9A4206D1364B0022DA82344B00226F
:101DBC0083F88020012000F045F9324B01221A7083
:101DCC002F4BDA8A2F4B5A802E4800F0C9FA52E07A
:101DDC00FB6902337B617B691B78012B02D0032BDF
:101DEC0028D028E07B6901333B61254B93F8813087
:101DFC001846FFF767F9224B93F88030042B04D177
:101E0C001F4B062283F8802003E01D4B052283F82C
:101E1C0080203B69B3F801309AB2194BDA82194B26
:101E2C0000221A70164BDA8A164B5A80154800F0AD
:101E3C0097FA00E000BF1EE0FB690233BB61BB698F
:101E4C001B889BB240F20742934210D0B3F5006F4F
:101E5C000FD0042B00D00DE0012000F0DBFD084B6F
:101E6C0093F882300A211846FFF7B6F902E000BF5A
:101E7C0000E000BF00BF012318462037BD4680BDDF
:101E8C00D00000200C03002080B500AF00F0A4FAB5
:101E9C0000BF80BD80B582B000AF064B3B60064BE7
:101EAC007B603B461946054806F028F900BF083709
:101EBC00BD4680BD280003208B2200085322000859
:101ECC00F0B58FB006AF00233B8006F03DF800F074
:101EDC0029F9F861FA690621002005F02BFFFB694E
:101EEC005A79524B1A72FB691A79504B5A72FB6928
:101EFC00DA784E4B9A72FB699A784C4BDA72FB6922
:101F0C005A784A4B1A73FB691A78484B5A734EF637
:101F1C006E53BB60FFF79CFE03467B603B1D1A466D
:101F2C0006212E2005F006FF414A1021182005F04D
:101F3C0001FF404A1021082005F0FCFE1821012069
:101F4C0005F061FF05F0B1FC0023FB76FB7E43F04E
:101F5C000103FB76FB7E002B1ED0374B7B6107F118
:101F6C001202F87E07F10E03019307F110030093A0
:101F7C0013460722002105F08DFB7C8A3D8A786987
:101F8C00FEF7F6F80346DAB27B690093134600229B
:101F9C002946204605F047FE788AF9893B4600938E
:101FAC000223002205F03FFE02220221002005F050
:101FBC00EFFF224B00221A70204B1B78184605F0BD
:101FCC0077FA1E4B01225A701C4B08221A711B4BBC
:101FDC0010225A71194B0122DA70184B184A9A6068
:101FEC00164B01229A70154B9D78144B5E78134B4F
:101FFC001B79124A52791149C9781048806800241B
:10200C000494039002910192009300230022314624
:10201C00284605F097FA094B9B78002B01D005F068
:10202C0020FC00BF2437BD46F0BD00BF04000020DB
:10203C0044960008549600080C950008D000002027
:10204C0007B2010080B58CB008AF0346FB71422388
:10205C00FB72FB79012B06D12B4B1B88FB812B4B85
:10206C001B88BB8105E04FF4C863FB814FF47A6396
:10207C00BB81274B93F881301846FFF723F8FB7987
:10208C00022B0DD1224B93F88030012B04D0204B26
:10209C0093F88030022B03D105F008F90346FB724C
:1020AC001B4AFB7982F88030194B1B7EB889F98961
:1020BC000022069200220592164A04920393164BB4
:1020CC00029308230193002300930023024600206F
:1020DC0005F010F90346FB7210490E2005F065FB64
:1020EC000346FB72FB7A002B0AD1FB79012B07D13B
:1020FC00074B93F881300A491846FFF76DF800BF7B
:10210C0000BF1037BD4680BD540100205601002091
:10211C00D0000020E9000020649600080400002094
:10212C0046E0010080B586B000AFFFF791FD386145
:10213C003B69B3F1FF3F23D0FFF7A2FDB860FFF777
:10214C0093FD78603B69DAB2164B1A703B691B0A37
:10215C00DAB2144B5A703B691B0CDAB2114B9A7001
:10216C007B68DAB20F4BDA70BB68DAB20D4B1A71BE
:10217C00BB681B0ADAB20B4B5A710A4B7B610BE042
:10218C00002006F0F5FDF860FB68002B02D0FB6820
:10219C007B6101E0044B7B617B6918461837BD46B7
:1021AC0080BD00BFE80100203C96000880B582B0DD
:1021BC0000AF012000F048FC094B93F88030052B50
:1021CC000AD00023FB7105F071F80346FB71044B38
:1021DC00002283F8802000BF00BF0837BD4680BDB9
:1021EC00D000002080B500AF0021012007F010F8CE
:1021FC0000BF80BD80B500AF012000F025FC00BF02
:10220C0080BD80B582B000AF78600021042006F05C
:10221C00FFFF00BF0837BD4680BD80B582B000AF60
:10222C007860012007F05AF800BF0837BD4680BD22
:10223C0080B582B000AF7860012007F06DF800BF68
:10224C000837BD4680BD80B584B000AF78607B6830
:10225C00FB60FB685B680833184604F0D5FF034647
:10226C00FB72FB7A002B03D0FB6801221A7002E090
:10227C00FB6800221A7000BF1037BD4680BD80B5C8
:10228C0084B000AF0346FB71FB79002B02D0012B0D
:10229C0006D00BE00723FB60F86806F0E3FF05E0CF
:1022AC000723FB60F86806F0FBFF00BF00BF103788
:1022BC00BD4680BD80B582B000AF78607B681B786E
:1022CC00012B08D0032B0AD0002B00D042E0234B6B
:1022DC0001221A703EE0214B00221A703AE07B6812
:1022EC005B681B78002B17D17B685B6801331B780C
:1022FC00012B05D1002000F08DFB184B01229A70A8
:10230C007B685B6801331B78002B05D1002000F043
:10231C009BFB124B00229A707B685B681B78012B2D
:10232C0017D17B685B6801331B78012B05D100202A
:10233C0000F070FB094B01229A707B685B680133DB
:10234C001B78002B05D1002000F07EFB034B0022F4
:10235C009A7000BF00BF0837BD4680BD58010020F1
:10236C0080B582B000AF78607B681B78002B05D0FD
:10237C00012B00D003E000F019F800E000BF00BF13
:10238C000837BD4680BD000080B500AF054A00216E
:10239C00022006F01DFF044B00221A7000F006F814
:1023AC0000BF80BDF52300085801002080B500AFA8
:1023BC00002000F049FB074B01225A70054B00220C
:1023CC009A70044B0122DA70024B00221A7100BF82
:1023DC0080BD00BF5801002080B500AF0021022055
:1023EC0006F016FF00BF80BD80B500AF0B4B1B790C
:1023FC00002B03D1094B01221A7102E0074B00227A
:10240C001A71064B1B78002B05D005494FF642601C
:10241C0004F020FE00BF00BF80BD00BF58010020AB
:10242C005B01002080B483B000AF7860064BD3F81A
:10243C00D42005497B681343C1F8D43000BF0C3756
:10244C00BD465DF8047B70470008005880B483B02B
:10245C0000AF7860054B1A6A04497B6813430B6222
:10246C0000BF0C37BD465DF8047B70470008005870
:10247C0080B400AF054BDB68044A43F40043D360DF
:10248C0000BFBD465DF8047B704700BF00040058D8
:10249C0080B485B000AF78604FF0B0431A6D4FF048
:1024AC00B0417B6813430B654FF0B0431A6D7B68EA
:1024BC001340FB60FB6800BF1437BD465DF8047B1E
:1024CC00704780B485B000AF78604FF0B043D3F85C
:1024DC0050214FF0B0417B681343C1F850314FF09D
:1024EC00B043D3F850217B681340FB60FB6800BFFE
:1024FC001437BD465DF8047B704780B483B000AFE1
:10250C0078607B681B6843F480327B681A6000BF7C
:10251C000C37BD465DF8047B704780B483B000AFC8
:10252C0078607B681B6843F001027B681A6000BF0F
:10253C000C37BD465DF8047B704780B483B000AFA8
:10254C00786039607B685A683B681B04DB431A402F
:10255C007B685A6000BF0C37BD465DF8047B704742
:10256C0080B483B000AF786039607B685A683B6890
:10257C001B041A437B685A6000BF0C37BD465DF8DC
:10258C00047B704780B483B000AF786039607B689F
:10259C005A683B68DB431A407B685A6000BF0C37B3
:1025AC00BD465DF8047B704780B483B000AF7860A3
:1025BC0039607B683A689A6000BF0C37BD465DF89D
:1025CC00047B704780B483B000AF786039603B689F
:1025DC001A047B689A6000BF0C37BD465DF8047B1B
:1025EC00704780B483B000AF786039607B68DA687C
:1025FC003B6813403A689A4201D1012300E0002362
:10260C0018460C37BD465DF8047B704780B483B028
:10261C0000AF786039607B68DA693B6813403A68D0
:10262C009A4201D1012300E0002318460C37BD4625
:10263C005DF8047B7047000080B500AF022119489B
:10264C00FFF7E4FF0346002B09D0164B5B68DB4316
:10265C0003F00203002B02D000F0EAF81FE0012186
:10266C001048FFF7D3FF0346002B08D00D4B5B68D7
:10267C0003F00103002B02D100F09EF80FE00821BB
:10268C000848FFF7C3FF0346002B09D0054B5B68D6
:10269C00DB4303F00803002B02D000F015F900BF58
:1026AC0000BF80BD000C005880B500AF022122484D
:1026BC00FFF797FF0346002B09D11F4B5B68DB43E9
:1026CC0003F40033002B02D000F0A6F831E0022115
:1026DC001948FFF786FF0346002B09D1164B5B68A0
:1026EC00DB4303F40033002B02D000F095F820E01C
:1026FC0008211148FFF775FF0346002B09D10E4B3B
:10270C005B68DB4303F40023002B02D000F0BEF81F
:10271C000FE020210848FFF764FF0346002B09D186
:10272C00054B5B68DB4303F40013002B02D000F075
:10273C004FF800BF00BF80BD000C005880B500AF43
:10274C004FF48010FFF7BDFE4FF40070FFF76AFEE8
:10275C004FF40070FFF77AFE40BF20BFFFF788FEF2
:10276C0000BF80BD80B500AF4FF48010FFF790FE26
:10277C000648FFF7D2FE0548FFF7BFFE2C2000F0FD
:10278C00B4FC2D2000F0B1FC00BF80BD000C005843
:10279C0080B500AF01210248FFF7F4FE00BF80BDF9
:1027AC00000C005880B500AF01210248FFF70AFF6A
:1027BC0000BF80BD000C005880B500AF05F0F8FFDD
:1027CC0001210248FFF7F0FE00BF80BD000C00584D
:1027DC0080B500AF20210348FFF7C2FE06F018F8C1
:1027EC0000BF80BD000C005880B500AF022102482C
:1027FC00FFF7C8FE00BF80BD000C005880B500AFCD
:10280C0002210448FFF7DEFE02210248FFF795FE85
:10281C0000BF80BD000C005880B500AF02210348FA
:10282C00FFF79EFE06F044F800BF80BD000C005878
:10283C0080B500AF06F052F802210248FFF7B4FE53
:10284C0000BF80BD000C005880B582B000AF78602E
:10285C0008210C48FFF7C5FE0346002B07D00A4A97
:10286C007B68136008210748FFF767FE06E07B686A
:10287C00984708210348FFF7A5FE00BF0837BD465F
:10288C0080BD00BF000C0058F001002080B500AFE7
:10289C0008210648FFF764FE054B1B689847082182
:1028AC000248FFF78FFE00BF80BD00BF000C005830
:1028BC00F001002080B500AF08210248FFF762FE4E
:1028CC0000BF80BD000C005880B500AF06F0AEF81C
:1028DC0008210248FFF768FE00BF80BD000C0058BD
:1028EC00D458C4500433C4188C42F9D370470360D5
:1028FC0004308842FBD370470C4885460C480D4980
:10290C000D4A0023FFF7EFFF0C480D490023FFF79A
:10291C00F0FF0C480C490023FFF7EBFF00F092F995
:10292C0006F084FDFEF7C0FEFEE700000000032069
:10293C0004000020340000200C9700089C010020AB
:10294C0088050020E0010320570A0320FEE780B42D
:10295C0085B000AF78604FF0B043DA6C4FF0B04107
:10296C007B681343CB644FF0B043DA6C7B68134045
:10297C00FB60FB6800BF1437BD465DF8047B7047F5
:10298C0080B588B000AF0346FB7107F10C03002241
:10299C001A605A609A60DA601A61FB79002B03D1D5
:1029AC000120FFF7D4FF0CE0FB79012B03D10220AF
:1029BC00FFF7CDFF05E0FB79022B02D10220FFF7D8
:1029CC00C6FFFB79114A32F81330FB6001233B61DF
:1029DC0000237B610223BB61FB790D4A52F8233043
:1029EC0007F10C021146184600F0C4FBFB79084AAB
:1029FC0052F82300FB79054A32F8133000221946AD
:102A0C0000F028FD00BF2037BD4680BD6C96000845
:102A1C001400002080B582B000AF0346FB71FB7937
:102A2C00074A52F82300FB79064A32F81330012288
:102A3C00194600F00FFD00BF0837BD4680BD00BF32
:102A4C00140000206C96000880B582B000AF0346DD
:102A5C00FB71FB79074A52F82300FB79064A32F8DE
:102A6C0013300022194600F0F5FC00BF0837BD46B4
:102A7C0080BD00BF140000206C96000880B588B0A3
:102A8C0000AF03460A46FB711346BB7107F10C03FA
:102A9C0000221A605A609A60DA601A610120FFF70E
:102AAC0056FFBB79002B12D14FF48063FB600023DF
:102ABC003B6101237B610223BB61FB79164A52F80F
:102ACC00233007F10C021146184600F053FBBB797A
:102ADC00012B1CD14FF48063FB6001237B610F4BF6
:102AEC003B61FB790C4A52F8233007F10C0211467A
:102AFC00184600F03FFB28235BB200220F2118463A
:102B0C0000F0D9FA28235BB2184600F0EEFA00BFA9
:102B1C002037BD4680BD00BF2000002000002110E2
:102B2C0080B400AF4FF0B0431B684FF0B04243F499
:102B3C008033136000BFBD465DF8047B704780B4E2
:102B4C0000AF4FF0B0431B6803F40033B3F5003F04
:102B5C0001D1012300E000231846BD465DF8047B3B
:102B6C007047000080B483B000AF78604FF0B04382
:102B7C000A4AC3F89C204FF0B043D3F89C3023F49E
:102B8C007C527B681B024FF0B0411343C1F89C3060
:102B9C0000BF0C37BD465DF8047B7047FECAFECA09
:102BAC0080B400AF4FF0B0431B684FF0B04223F03D
:102BBC000103136000BFBD465DF8047B704780B411
:102BCC0083B000AF78604FF0B0439B6823F00302F2
:102BDC004FF0B0417B6813438B6000BF0C37BD4690
:102BEC005DF8047B704780B400AF4FF0B0439B6836
:102BFC0003F00C031846BD465DF8047B70470000DB
:102C0C0080B483B000AF7860064B1B6823F00702DA
:102C1C0004497B6813430B6000BF0C37BD465DF85D
:102C2C00047B70470040005880B400AF044B1B6815
:102C3C0003F007031846BD465DF8047B704700BFE0
:102C4C000040005880B582B000AF1A4BD3F88830E2
:102C5C00184A43F47003C2F88830002006F088F854
:102C6C0078607B68002B04D07B689B791846FFF753
:102C7C0079FFFFF755FF0120FFF7C2FF00BFFFF7F9
:102C8C00D3FF0346012BFAD100BFFFF758FF0346D1
:102C9C00002BFAD00220FFF792FF00BFFFF7A3FF33
:102CAC000346082BFAD1FFF77BFF00BF0837BD4660
:102CBC0080BD00BF00ED00E080B400AF054B5B6849
:102CCC00044A43F00103536000BFBD465DF8047B2A
:102CDC00704700BF002004E080B400AF054B5B6878
:102CEC00044A43F00203536000BFBD465DF8047B09
:102CFC00704700BF002004E080B582B000AF002315
:102D0C00FB71032000F0CCF90F2000F015F80346FE
:102D1C00002B02D00123FB7101E000F005F8FB79D8
:102D2C0018460837BD4680BD80B400AF00BFBD4615
:102D3C005DF8047B7047000080B584B000AF78600C
:102D4C000023FB73174B1B78002B24D001F056FA91
:102D5C000246144B1B7819464FF47A73B3FBF1F30C
:102D6C00B2FBF3F3184600F0DCF90346002B0FD14D
:102D7C007B680F2B09D8002279684FF0FF3000F0E8
:102D8C009AF9094A7B68136007E00123FB7304E09E
:102D9C000123FB7301E00123FB73FB7B1846103707
:102DAC00BD4680BD280000202400002080B400AF68
:102DBC00064B1B781A46064B1B681344044A1360D7
:102DCC0000BFBD465DF8047B704700BF28000020A3
:102DDC001003002080B400AF034B1B681846BD469F
:102DEC005DF8047B704700BF1003002080B400AF77
:102DFC00054B1B68044A23F00203136000BFBD4659
:102E0C005DF8047B704700BF10E000E080B400AFB9
:102E1C00054B1B68044A43F00203136000BFBD4618
:102E2C005DF8047B704700BF10E000E080B500AF98
:102E3C00FFF742FF00BF80BD80B500AFFFF74CFF2E
:102E4C0000BF80BD80B485B000AF78607B6803F0B4
:102E5C000703FB600C4BDB68BB60BA684FF6FF03E3
:102E6C001340BB60FB681A02BB68134343F0BF639B
:102E7C0043F40033BB60044ABB68D36000BF143713
:102E8C00BD465DF8047B704700ED00E080B400AFF8
:102E9C00044BDB681B0A03F007031846BD465DF8BC
:102EAC00047B704700ED00E080B483B000AF0346B4
:102EBC00FB7197F90730002B0BDBFB7903F01F023A
:102ECC00074997F907305B09012000FA02F241F833
:102EDC00232000BF0C37BD465DF8047B704700BF54
:102EEC0000E100E080B483B000AF0346FB7197F9BA
:102EFC000730002B10DBFB7903F01F02094997F90F
:102F0C0007305B09012000FA02F2203341F823203C
:102F1C00BFF34F8FBFF36F8F00BF0C37BD465DF80B
:102F2C00047B704700E100E080B483B000AF03463F
:102F3C00FB7197F90730002B0CDBFB7903F01F02B8
:102F4C00074997F907305B09012000FA02F2403378
:102F5C0041F8232000BF0C37BD465DF8047B704759
:102F6C0000E100E080B483B000AF0346FB7197F939
:102F7C000730002B0CDBFB7903F01F02074997F994
:102F8C0007305B09012000FA02F2603341F823207C
:102F9C0000BF0C37BD465DF8047B704700E100E0D4
:102FAC0080B483B000AF03463960FB7197F90730EA
:102FBC00002B0ADB3B68DAB20C4997F90730120197
:102FCC00D2B20B4483F800230AE03B68DAB208491A
:102FDC00FB7903F00F03043B1201D2B20B441A76B7
:102FEC0000BF0C37BD465DF8047B704700E100E084
:102FFC0000ED00E080B489B000AFF860B9607A6091
:10300C00FB6803F00703FB61FB69C3F10703042BA7
:10301C0028BF0423BB61FB690433062B02D9FB696F
:10302C00033B00E000237B614FF0FF32BB6902FAE7
:10303C0003F3DA43BB681A407B699A404FF0FF31C7
:10304C007B6901FA03F3D9437B680B4013431846A1
:10305C002437BD465DF8047B7047000080B582B014
:10306C0000AF78607B68013BB3F1807F01D3012313
:10307C000FE00A4A7B68013B53600F214FF0FF3091
:10308C00FFF78EFF054B00229A60044B07221A6053
:10309C00002318460837BD4680BD00BF10E000E095
:1030AC0080B582B000AF78607868FFF7CBFE00BFC8
:1030BC000837BD4680BD80B586B000AF0346B96009
:1030CC007A60FB73FFF7E2FE78617A68B968786919
:1030DC00FFF790FF024697F90F3011461846FFF79D
:1030EC005FFF00BF1837BD4680BD80B582B000AF12
:1030FC000346FB7197F907301846FFF7D5FE00BF62
:10310C000837BD4680BD80B582B000AF0346FB7169
:10311C0097F907301846FFF7E5FE00BF0837BD46A4
:10312C0080BD80B582B000AF78607868FFF796FFFD
:10313C00034618460837BD4680BD80B582B000AF47
:10314C000346FB7197F907301846FFF7EDFE00BFF9
:10315C000837BD4680BD80B582B000AF0346FB7119
:10316C0097F907301846FFF7FDFE00BF0837BD463C
:10317C0080BD000080B487B000AF78603960002358
:10318C007B614CE13B681A6801217B6901FA03F30E
:10319C001340FB60FB68002B00F03E813B685B68D2
:1031AC00012B0BD03B685B68022B07D03B685B683C
:1031BC00112B03D03B685B68122B30D17B689B686A
:1031CC003B617B695B00032202FA03F3DB433A6940
:1031DC0013403B613B68DA687B695B0002FA03F3DE
:1031EC003A6913433B617B683A699A607B685B6818
:1031FC003B6101227B6902FA03F3DB433A6913401A
:10320C003B613B685B681B0903F001027B6902FAB6
:10321C0003F33A6913433B617B683A695A607B68F4
:10322C00DB683B617B695B00032202FA03F3DB433F
:10323C003A6913403B613B689A687B695B0002FA10
:10324C0003F33A6913433B617B683A69DA603B6884
:10325C005B68022B03D03B685B68122B23D17B6924
:10326C00DA087B68083253F822303B617B6903F043
:10327C0007039B000F2202FA03F3DB433A69134066
:10328C003B613B681A697B6903F007039B0002FAF8
:10329C0003F33A6913433B617B69DA087B680832B4
:1032AC00396943F822107B681B683B617B695B00C2
:1032BC00032202FA03F3DB433A6913403B613B6898
:1032CC005B6803F003027B695B0002FA03F33A6963
:1032DC0013433B617B683A691A603B685B6803F097
:1032EC008053002B00F09880544A7B699B08023372
:1032FC0052F823303B617B6903F003039B000F22E0
:10330C0002FA03F3DB433A6913403B617B68B3F188
:10331C00904F19D07B684A4A934213D07B68494A34
:10332C0093420DD07B68484A934207D07B68474A4A
:10333C00934201D1042308E0072306E0032304E0B1
:10334C00022302E0012300E000237A6902F0030269
:10335C00920093403A6913433B6138497B699B085F
:10336C0002333A6941F82320394BD3F880303B6162
:10337C00FB68DB433A6913403B613B685B6803F4D1
:10338C008033002B03D03A69FB6813433B61304A0E
:10339C003B69C2F880302E4BD3F884303B61FB681C
:1033AC00DB433A6913403B613B685B6803F40033D1
:1033BC00002B03D03A69FB6813433B61244A3B69F9
:1033CC00C2F88430224B1B683B61FB68DB433A69D3
:1033DC0013403B613B685B6803F48013002B03D004
:1033EC003A69FB6813433B61194A3B691360184BFC
:1033FC005B683B61FB68DB433A6913403B613B68AC
:10340C005B6803F40013002B03D03A69FB68134389
:10341C003B610F4A3B6953607B6901337B613B68BD
:10342C001A687B6922FA03F3002B7FF4ABAE00BF62
:10343C001C37BD465DF8047B704700BF000001409F
:10344C000004004800080048000C00480010004828
:10345C000008005880B483B000AF78600B467B80C6
:10346C0013467B707B78002B03D07A887B689A613B
:10347C0002E07A887B689A6200BF0C37BD465DF823
:10348C00047B704780B582B000AF0346FB80084BCD
:10349C00DA68FB881340002B06D0054AFB88D36002
:1034AC00FB881846FDF77AF800BF0837BD4680BD8B
:1034BC000008005880B582B000AF78607B681B684C
:1034CC00184602F012FC034603F40043B3F5004F18
:1034DC0002D1786800F0DCFA7B681B68184602F0B1
:1034EC0004FC034603F48063B3F5806F12D17B6850
:1034FC001B68B3F844309AB27B681B6822F4806274
:10350C0092B2A3F84420786805F05DFB002178683E
:10351C0000F01EF97B681B68184602F0E6FB0346B8
:10352C0003F48043B3F5804F0BD17B681B68B3F871
:10353C0044309AB27B681B6822F4804292B2A3F8A2
:10354C0044207B681B68184602F0CFFB034603F44B
:10355C000053B3F5005F0BD17B681B68B3F84430A4
:10356C009AB27B681B6822F4005292B2A3F84420F2
:10357C007B681B68184602F0B8FB034603F48053C3
:10358C00B3F5805F33D17B681B68B3F840309AB2D7
:10359C007B681B6822F0040292B2A3F840207B687F
:1035AC001B68B3F840309AB27B681B6822F00802A3
:1035BC0092B2A3F840207B6893F86032012B07D1BC
:1035CC007B68002283F860220021786800F010FDEF
:1035DC00786805F01BFB7B681B68B3F844309AB223
:1035EC007B681B6822F4805292B2A3F844207B685B
:1035FC001B68184602F079FB034603F40063B3F52D
:10360C00006F26D17B681B68B3F840309AB27B6898
:10361C001B6842F0080292B2A3F840207B681B683A
:10362C00B3F844309AB27B681B6822F4006292B201
:10363C00A3F844207B681B68B3F840309AB27B68CF
:10364C001B6842F0040292B2A3F84020786805F09F
:10365C00CFFA7B681B68184602F047FB034603F061
:10366C008003802B3FD17B681B68B3F844309AB23F
:10367C007B681B6822F0800292B2A3F844207B681E
:10368C0093F86032002B2BD17B681B68B3F8403069
:10369C009AB27B681B6842F0040292B2A3F84020F5
:1036AC007B681B68B3F840309AB27B681B6842F0A9
:1036BC00080292B2A3F840207B68012283F86022B2
:1036CC007B681B68B3F854309BB29B0803F03C0238
:1036DC007B68C3F864220121786800F089FC02E061
:1036EC00786805F085FA7B681B68184602F0FDFACD
:1036FC00034603F40073B3F5007F0ED17B681B689F
:10370C00B3F844309AB27B681B6822F4007292B210
:10371C00A3F84420786805F048FA7B681B681846C3
:10372C0002F0E3FA034603F48073B3F5807F0BD108
:10373C007B681B68B3F844309AB27B681B6822F430
:10374C00807292B2A3F8442000BF0837BD4680BDFA
:10375C0080B582B000AF78600B46FB707B6893F845
:10376C002832012B01D1022313E07B68012283F85C
:10377C0028227B68FA7883F824207B681B68FA7807
:10378C001146184602F09DFA7B68002283F8282225
:10379C00002318460837BD4680BD80B584B000AF05
:1037AC007860084611461A460346FB700B463B8070
:1037BC001346BB700023FB7297F90330002B0BDA16
:1037CC00FB7803F007035B0128337A681344FB6032
:1037DC00FB6801225A700BE0FB7803F007035B01D6
:1037EC0003F594737A681344FB60FB6800225A70EB
:1037FC00FB7803F00703DAB2FB681A703A88FB68AF
:10380C001A61FB68BA78DA70FB685B78002B04D01D
:10381C00FB681B789AB2FB68DA81BB78022B02D169
:10382C00FB6800221A717B6893F82832012B01D1B6
:10383C0002230EE07B68012283F828227B681B6838
:10384C00F968184601F06AFA7B68002283F828228E
:10385C00FB7A18461037BD4680BD80B586B000AFE8
:10386C00F8607A603B600B46FB72FB7A03F007034F
:10387C005B0103F59473FA6813447B617B697A6886
:10388C005A617B693A689A617B690022DA617B69CB
:10389C0000225A70FB7A03F00703DAB27B691A70C4
:1038AC00FB7A03F00703002B06D1FB681B687969D0
:1038BC00184601F0E1FD05E0FB681B6879691846C4
:1038CC0001F0DAFD002318461837BD4680BD80B5DF
:1038DC0086B000AFF8607A603B600B46FB72FB7AF7
:1038EC0003F007035B012833FA6813447B617B699F
:1038FC007A685A617B693A689A617B690022DA615D
:10390C007B6901225A70FB7A03F00703DAB27B69F8
:10391C001A70FB7A03F00703002B06D1FB681B68B7
:10392C007969184601F0A8FD05E0FB681B68796908
:10393C00184601F0A1FD002318461837BD4680BD7E
:10394C0080B584B000AF78600B46FB70FB7803F059
:10395C0007027B685B689A4201D9012346E097F91C
:10396C000330002B0BDAFB7803F007035B012833E1
:10397C007A681344FB60FB6801225A7009E0FB78FB
:10398C005B0103F594737A681344FB60FB680022B7
:10399C005A70FB6801229A70FB7803F00703DAB2C5
:1039AC00FB681A707B6893F82832012B01D1022333
:1039BC001CE07B68012283F828227B681B68F9686D
:1039CC00184602F07FF8FB7803F00703002B08D1B0
:1039DC007B681A687B6803F50C731946104602F075
:1039EC0094F97B68002283F82822002318461037AC
:1039FC00BD4680BD80B584B000AF78600B46FB70CF
:103A0C00FB7803F00F027B685B689A4201D90123B3
:103A1C003AE097F90330002B0BDAFB7803F007033D
:103A2C005B0128337A681344FB60FB6801225A70EF
:103A3C000BE0FB7803F007035B0103F594737A68E2
:103A4C001344FB60FB6800225A70FB6800229A70DA
:103A5C00FB7803F00703DAB2FB681A707B6893F803
:103A6C002832012B01D102230EE07B68012283F85E
:103A7C0028227B681B68F968184602F074F87B688A
:103A8C00002283F82822002318461037BD4680BD3B
:103A9C0080B58EB000AF78609CE27B681B68B3F891
:103AAC004430FB85FB8DDBB203F00F0387F82D3020
:103ABC0097F82D30002B40F05281FB8D03F0100352
:103ACC00002B50D17B681B681B889BB223F4E1430D
:103ADC0023F07003FB817B681A68FB896FEA434310
:103AEC006FEA53439BB213807B6828337B627B68FD
:103AFC001B68B3F850309BB21A467B6A1B78DB000C
:103B0C0013447A681268134403F202431B88C3F30C
:103B1C0009027B6ADA617B6A5A697B6ADB691A443F
:103B2C007B6A5A610021786805F028F87B6893F865
:103B3C002430DBB2002B00F04D827B6A9B69002B9A
:103B4C0040F048827B6893F82430DBB263F07F034B
:103B5C00DAB27B681B6892B2A3F84C207B68002217
:103B6C0083F8242036E27B6803F594737B627B68D0
:103B7C001B681B887B857B8D03F40063002B32D084
:103B8C007B681B68B3F850309BB21A467B6A1B7873
:103B9C00DB0013447A681268134403F206431B8853
:103BAC00C3F309027B6ADA617B6818687B6803F5EA
:103BBC000C717B6ADA887B6ADB699BB202F0F2F8E3
:103BCC007B681B681B889AB240F68F7313403B824C
:103BDC007B681B683A8A42F0800292B21A8078683D
:103BEC0004F0A2FFF6E1B7F92A30002B80F2F28143
:103BFC007B681B681B889AB240F68F731340FB835B
:103C0C007B681B68FA8B42F0800292B21A807B6848
:103C1C001B68B3F850309BB21A467B6A1B78DB00EA
:103C2C0013447A681268134403F206431B88C3F3E7
:103C3C0009027B6ADA617B6ADB69002B19D07B6A2B
:103C4C005B69002B15D07B6818687B6A59697B6AA5
:103C5C00DA887B6ADB699BB202F0A4F87B6A5A694A
:103C6C007B6ADB691A447B6A5A610021786804F02C
:103C7C006DFF7B681B68BB617B681B68B3F85030B9
:103C8C009BB21A46BB691344BB61BB6903F2064382
:103C9C007B617B6A1B69002B12D17B691B889BB2F1
:103CAC0023F4F8439AB27B691A807B691B889BB218
:103CBC006FEA43436FEA53439AB27B691A802FE051
:103CCC007B6A1B693E2B13D87B6A1B695B083B63C1
:103CDC007B6A1B6903F00103002B02D03B6B0133A1
:103CEC003B633B6B9BB29B029AB27B691A8017E0D9
:103CFC007B6A1B695B093B637B6A1B6903F01F03CF
:103D0C00002B02D13B6B013B3B633B6B9BB29B0299
:103D1C009BB26FEA43436FEA53439AB27B691A80B2
:103D2C007B681B681B889BB223F4804323F07003D1
:103D3C007B827B8A83F480537B827B8A83F400535F
:103D4C007B827B681A687B8A43F07F4343F47F0352
:103D5C0043F4004343F080039BB213803AE17B6849
:103D6C001B681A4697F82D309B0013441B887B85E3
:103D7C00B7F92A30002B80F2D6807B681B681A4674
:103D8C0097F82D309B0013441B889AB240F68F7322
:103D9C0013403B857B681B681A4697F82D309B00B7
:103DAC0013443A8D42F0800292B21A8097F82D306B
:103DBC005B0103F594737A6813447B627B6A1B7B0B
:103DCC00002B1FD17B681B68B3F850309BB21A468E
:103DDC007B6A1B78DB0013447A681268134403F285
:103DEC0006431B88C3F30903FB86FB8E002B75D09F
:103DFC007B6818687B6A59697B6ADA88FB8E01F0EC
:103E0C00D1FF6BE07B681B681A467B6A1B789B00B2
:103E1C0013441B889BB223F4E04323F070037B8490
:103E2C007B681B681A467B6A1B789B001A447B8C48
:103E3C0043F07F4343F47F0343F4004343F0C00358
:103E4C009BB213807B681B681A467B6A1B789B00AD
:103E5C0013441B889BB203F48043002B1FD07B6858
:103E6C001B68B3F850309BB21A467B6A1B78DB0098
:103E7C0013447A681268134403F202431B88C3F399
:103E8C000903FB86FB8E002B28D07B6818687B6AA5
:103E9C0059697B6A1A89FB8E01F084FF1EE07B68EE
:103EAC001B68B3F850309BB21A467B6A1B78DB0058
:103EBC0013447A681268134403F206431B88C3F355
:103ECC000903FB86FB8E002B08D07B6818687B6A85
:103EDC0059697B6A5A89FB8E01F064FF7B6ADA6947
:103EEC00FB8E1A447B6ADA617B6A5A69FB8E1A4430
:103EFC007B6A5A617B6A9B69002B04D0FA8E7B6AC1
:103F0C001B699A4206D27B6A1B781946786804F0C2
:103F1C001DFE08E07B6A19787B6A5A697B6A9B698B
:103F2C007868FFF79AFC7B8D03F08003002B51D04F
:103F3C0097F82D305B0128337A6813447B627B68D9
:103F4C001B681A4697F82D309B0013441B889BB2B4
:103F5C0023F4E14323F070033B847B681B681A460F
:103F6C0097F82D309B001A443B8C6FEA43436FEA61
:103F7C0053439BB213807B681B68B3F850309BB2E1
:103F8C001A467B6A1B78DB0013447A681268134468
:103F9C0003F202431B88C3F309027B6ADA617B6A72
:103FAC005A697B6ADB691A447B6A5A617B6A9B6932
:103FBC00002B06D17B6A1B781946786804F0DEFD6D
:103FCC0008E07B6A19787B6A5A697B6A9B69786816
:103FDC00FFF77DFC7B681B68B3F844309BB21BB2C7
:103FEC00002BFFF65AAD002318463837BD4680BD6E
:103FFC0080B483B000AF78600B46FB7000BF0C3709
:10400C00BD465DF8047B704780B400AF054B1B6860
:10401C00044A43F48073136000BFBD465DF8047B13
:10402C00704700BF0004005880B400AF054B5B68BC
:10403C00044A43F48063536000BFBD465DF8047BC3
:10404C00704700BF0004005880B400AF4FF0B0437D
:10405C001B6803F48013B3F5801F01D1012300E02A
:10406C0000231846BD465DF8047B704780B483B0CE
:10407C0000AF4FF0B0431B6803F0F0037B607B682C
:10408C00B02B01D9B0237B607B6818460C37BD463A
:10409C005DF8047B704780B400AF4FF0B0439B6871
:1040AC0003F00C031846BD465DF8047B704780B4E2
:1040BC0000AF4FF0B0439B6803F0F0031846BD46C9
:1040CC005DF8047B704780B400AF4FF0B043DB6801
:1040DC001B0A03F07F031846BD465DF8047B70474E
:1040EC0080B400AF4FF0B043DB6803F06043184678
:1040FC00BD465DF8047B704780B400AF4FF0B04311
:10410C00DB6803F070031846BD465DF8047B70470E
:10411C0080B400AF4FF0B043DB6803F003031846E4
:10412C00BD465DF8047B704790B585B000AFFFF7D6
:10413C00B2FF78607B68002B0AD1FFF797FF03462C
:10414C001B0903F00F032A4A52F82330FB604AE0A4
:10415C007B68042B02D1274BFB6044E07B68082B67
:10416C000AD1FFF771FF0346012B02D1214BFB60F3
:10417C0039E0214BFB6036E0FFF7CAFF38603B6843
:10418C00022B02D0032B03D00DE01A4BBB6015E0C1
:10419C00FFF75AFF0346012B02D1164BBB600DE013
:1041AC00154BBB600AE0FFF761FF03461B0903F0E8
:1041BC000F030F4A52F82330BB6000BFFFF783FF99
:1041CC000246BB6803FB02F4FFF796FF03461B098C
:1041DC000133B4FBF3F4FFF783FF03465B0F0133AA
:1041EC00B4FBF3F3FB60FB6818461437BD4690BD77
:1041FC00B49600080024F4000048E80198B500AF1C
:10420C00FFF792FF0446FFF752FF03461B0903F02A
:10421C000F03034A52F82330B4FBF3F3184698BD4E
:10422C007496000880B400AF4FF0B043D3F89030D0
:10423C0003F00103012B01D1012300E000231846F8
:10424C00BD465DF8047B704780B400AF4FF0B043BF
:10425C00D3F8903003F00203022B01D1012300E0CC
:10426C0000231846BD465DF8047B704780B483B0CC
:10427C0000AF78604FF0B043D3F8943023F4404251
:10428C004FF0B0417B681343C1F8943000BF0C373A
:10429C00BD465DF8047B704780B483B000AF786096
:1042AC004FF0B0435B6A23F003024FF0B0417B68E0
:1042BC0013434B6200BF0C37BD465DF8047B70475F
:1042CC0080B483B000AF78604FF0B0435B6A23F0EA
:1042DC0030024FF0B0417B6813434B6200BF0C3788
:1042EC00BD465DF8047B704780B483B000AF786046
:1042FC004FF0B043D3F8883023F003024FF0B041B5
:10430C007B681343C1F8883000BF0C37BD465DF89D
:10431C00047B704780B483B000AF78604FF0B0433B
:10432C00D3F8883023F440624FF0B0417B681343DC
:10433C00C1F8883000BF0C37BD465DF8047B704770
:10434C0080B483B000AF78604FF0B043D3F88820CE
:10435C007B681B0903F47F23DB431A407B681B013A
:10436C0003F47F234FF0B0411343C1F8883000BFF2
:10437C000C37BD465DF8047B704780B483B000AF4A
:10438C0078604FF0B043D3F888207B681B0C1B047B
:10439C00DB431A407B681B044FF0B0411343C1F858
:1043AC00883000BF0C37BD465DF8047B704780B485
:1043BC0083B000AF78604FF0B043D3F8883023F46B
:1043CC0040024FF0B0417B681343C1F8883000BF06
:1043DC000C37BD465DF8047B704780B483B000AFEA
:1043EC0078604FF0B043D3F8883023F040424FF060
:1043FC00B0417B681343C1F8883000BF0C37BD4611
:10440C005DF8047B704780B483B000AF78604FF0E8
:10441C00B043D3F8883023F040624FF0B0417B6852
:10442C001343C1F8883000BF0C37BD465DF8047BE0
:10443C00704780B582B000AF78607868FFF7E3FF13
:10444C0000BF0837BD4680BD80B483B000AF786034
:10445C004FF0B043D3F8883023F040524FF0B041C6
:10446C007B681343C1F8883000BF0C37BD465DF83C
:10447C00047B704780B483B000AF78604FF0B043DA
:10448C00D3F8903023F440724FF0B0417B68134363
:10449C00C1F8903000BF0C37BD465DF8047B704707
:1044AC0080B400AF4FF0B043D3F8903003F44073B6
:1044BC001846BD465DF8047B704780B400AF4FF0E2
:1044CC00B043D3F890304FF0B04243F48033C2F88D
:1044DC00903000BFBD465DF8047B704780B400AFE0
:1044EC004FF0B043D3F890304FF0B04223F4803308
:1044FC00C2F8903000BFBD465DF8047B704780B4B5
:10450C0000AF4FF0B0431B684FF0B04243F08063F4
:10451C00136000BFBD465DF8047B704780B400AFEC
:10452C004FF0B0431B684FF0B04223F08063136030
:10453C0000BFBD465DF8047B704780B400AF4FF000
:10454C00B0431B6803F00063B3F1006F01D101238A
:10455C0000E000231846BD465DF8047B704780B42C
:10456C0083B000AF78604FF0B0439A6B4FF0B0411E
:10457C007B6813438B6300BF0C37BD465DF8047B2F
:10458C00704780B483B000AF78604FF0B0439A6B43
:10459C007B68DB434FF0B04113408B6300BF0C379B
:1045AC00BD465DF8047B704780B588B000AF78607D
:1045BC000023FB770023BB777B681B6803F0400369
:1045CC00002B33D07B681B6BB3F5800F0CD0B3F58D
:1045DC00800F02D8002B10D017E0B3F5000F17D0C6
:1045EC00B3F5400F16D010E04FF0B043DB684FF03E
:1045FC00B04243F48033D3600DE07B68043318463B
:10460C0000F082F90346FB7705E00123FB7702E01B
:10461C0000BF00E000BFFB7F002B05D17B681B6B4C
:10462C001846FFF7C4FE01E0FB7FBB777B681B6875
:10463C0003F40063002B46D0FFF732FFB8617B68B0
:10464C001B6CBA699A423CD0FFF7DEFCBB69002BAD
:10465C0005D17B681B6C1846FFF70CFF2EE04FF062
:10466C00B043D3F890307B61FFF727FFFFF736FF9D
:10467C007B6923F440727B681B6C13437B614FF0A6
:10468C00B0427B69C2F89030FFF7CCFD0346012B9A
:10469C0014D1FEF79FFB38610BE0FEF79BFB024643
:1046AC003B69D31A41F28832934202D90323FB7738
:1046BC0004E0FFF7C9FD0346012BEED1FB7FBB776E
:1046CC0001E0FB7FBB777B681B6803F00103002BC9
:1046DC0004D07B689B691846FFF706FE7B681B6855
:1046EC0003F00203002B04D07B68DB691846FFF74C
:1046FC0011FE7B681B6803F01003002B04D07B6851
:10470C009B6A1846FFF739FE7B681B6803F0200391
:10471C00002B04D07B68DB6A1846FFF72EFE7B6803
:10472C001B6803F00403002B04D07B681B6A18463B
:10473C00FFF706FE7B681B6803F00803002B04D010
:10474C007B685B6A1846FFF7FBFD7B681B6803F40C
:10475C008073002B22D07B685B6B1846FFF769FED9
:10476C007B685B6BB3F1006F07D14FF0B043DB6834
:10477C004FF0B04243F08073D3607B685B6BB3F156
:10478C00806F0BD17B680433184600F018F9034690
:10479C00FB77FB7F002B01D0FB7FBB777B681B6813
:1047AC0003F40073002B2BD07B689B6BB3F1804F11
:1047BC0008D07B689B6BB3F1004F03D07B689B6B7D
:1047CC00002B05D17B689B6B1846FFF706FE0AE0B1
:1047DC007B689B6B23F08053FB600020FFF7FDFD93
:1047EC00F868FFF710FE7B689B6BB3F1C05F07D1D5
:1047FC004FF0B043DB684FF0B04243F08073D360AE
:10480C007B681B6803F48063002B22D07B68DB6B16
:10481C001846FFF719FE7B68DB6BB3F1005F07D11D
:10482C004FF0B043DB684FF0B04243F48033D360B9
:10483C007B68DB6BB3F1805F0BD17B68043318466C
:10484C0000F018F90346FB77FB7F002B01D0FB7FB0
:10485C00BB777B681B6803F48053002B04D07B6808
:10486C005B6C1846FFF702FD7B681B6803F4005372
:10487C00002B09D07B68DB6C1846FFF721FD7B68A9
:10488C009B6C1846FFF708FDBB7F18462037BD46CA
:10489C0080BD000080B584B000AF78604FF08070B0
:1048AC00FFF75DFE4FF08070FFF76BFE7B681A68B8
:1048BC007B685B681A437B689B681343FB607B686F
:1048CC00DB68FA681343FB607B681B691B04FA689E
:1048DC001343FB600B4AFB6853600A4B1B6823F4C1
:1048EC007C527B685B691B02064913430B60054BCA
:1048FC001B68044A43F06003136000BF1037BD46C9
:10490C0080BD00BF0060004080B584B000AF78600F
:10491C000023FB73FFF702FEFEF75CFAB86009E0B8
:10492C00FEF758FA0246BB68D31A022B02D90323AE
:10493C00FB7304E0FFF701FE0346002BF0D1FB7B79
:10494C00002B37D14FF0B0431B6923F4FE427B6838
:10495C001B681B024FF0B04113430B614FF0B04387
:10496C001B6923F478127B685B684FF0B0411343EA
:10497C000B61FFF7C4FDFEF72DFAB86009E0FEF7F6
:10498C0029FA0246BB68D31A022B02D90323FB7304
:10499C0004E0FFF7D2FD0346012BF0D1FB7B002B8B
:1049AC0008D14FF0B0431A697B681B694FF0B041D6
:1049BC0013430B61FB7B18461037BD4680BD80B599
:1049CC0084B000AF78600023FB73FFF7A7FDFEF700
:1049DC0001FAB86009E0FEF7FDF90246BB68D31A8C
:1049EC00022B02D90323FB7304E0FFF7A6FD034659
:1049FC00002BF0D1FB7B002B37D14FF0B0431B6960
:104A0C0023F4FE427B681B681B024FF0B04113433A
:104A1C000B614FF0B0431B6923F060627B689B68AD
:104A2C004FF0B04113430B61FFF769FDFEF7D2F96C
:104A3C00B86009E0FEF7CEF90246BB68D31A022B28
:104A4C0002D90323FB7304E0FFF777FD0346012B28
:104A5C00F0D1FB7B002B08D14FF0B0431A697B6877
:104A6C001B694FF0B04113430B61FB7B18461037A9
:104A7C00BD4680BD80B584B000AF78600023FB7369
:104A8C00FFF74CFDFEF7A6F9B86009E0FEF7A2F9B6
:104A9C000246BB68D31A022B02D90323FB7304E032
:104AAC00FFF74BFD0346002BF0D1FB7B002B37D1DE
:104ABC004FF0B0431B6923F4FE427B681B681B025A
:104ACC004FF0B04113430B614FF0B0431B6923F01F
:104ADC0060427B68DB684FF0B04113430B61FFF71A
:104AEC000EFDFEF777F9B86009E0FEF773F90246A0
:104AFC00BB68D31A022B02D90323FB7304E0FFF724
:104B0C001CFD0346012BF0D1FB7B002B08D14FF091
:104B1C00B0431A697B681B694FF0B04113430B61BA
:104B2C00FB7B18461037BD4680BD80B582B000AF08
:104B3C0078607B68002B01D1012390E07B6893F8AF
:104B4C002130DBB2002B06D17B68002283F82020B9
:104B5C00786800F088F87B68022283F821207B6853
:104B6C001B68CA225A627B681B6853225A62786897
:104B7C0000F0A9F80346002B09D07B681B68FF22C4
:104B8C005A627B68042283F82120012367E07B684A
:104B9C001B689B687A68126823F4E00323F04003D7
:104BAC0093607B681B6899687B685A687B681B6993
:104BBC001A437B689B691A437B681B680A439A609B
:104BCC007B681B687A68D2681A617B681B681969F4
:104BDC007B689B681A047B681B680A431A617B68B4
:104BEC001B68DA687B681B6822F08002DA607B68DD
:104BFC001B68DA6C7B681B6822F00302DA647B6842
:104C0C001B68D96C7B68DA697B685B691A437B68C3
:104C1C001B680A43DA647B681B689B6803F02003FB
:104C2C00002B13D1786800F028F80346002B0DD028
:104C3C007B681B68FF225A627B68042283F8212060
:104C4C007B68002283F82020012308E07B681B6826
:104C5C00FF225A627B68012283F821200023184628
:104C6C000837BD4680BD80B483B000AF786000BF0C
:104C7C000C37BD465DF8047B704780B584B000AF3F
:104C8C0078607B681B68DA687B681B6822F0A0027E
:104C9C00DA60FEF79FF8F86009E0FEF79BF8024631
:104CAC00FB68D31AB3F57A7F01D9032307E07B683D
:104CBC001B68DB6803F02003002BEED000231846A2
:104CCC001037BD4680BD80B584B000AF78607B687E
:104CDC001B68DB6803F04003002B19D17B681B6851
:104CEC004FF0FF32DA60FEF775F8F86009E0FEF776
:104CFC0071F80246FB68D31AB3F57A7F01D9032306
:104D0C0007E07B681B68DB6803F04003002BEED0E8
:104D1C00002318461037BD4680BD000080B49DB0FE
:104D2C0000AF78603960002387F86F307A683B6891
:104D3C001B789B0013441B889BB223F4EC4323F099
:104D4C007003A7F86C303B68DB78032B1FD801A2EB
:104D5C0052F823F0714D00088D4D0008A34D00084A
:104D6C007F4D0008B7F86C3043F40073A7F86C3033
:104D7C0012E0B7F86C3043F4C063A7F86C300BE06A
:104D8C00B7F86C3043F48063A7F86C3004E001236F
:104D9C0087F86F3000E000BF7A683B681B789B0097
:104DAC001A44B7F86C3043F07F4343F47F0343F469
:104DBC00004343F080039BB213807A683B681B78F6
:104DCC009B0013441B889BB21BB223F4E04323F0DB
:104DDC0070031AB23B681B781BB213431BB2A7F8C3
:104DEC0066307A683B681B789B001A44B7F86630CB
:104DFC0043F07F4343F47F0343F4004343F08003C9
:104E0C009BB213803B681B7B002B40F049813B68B5
:104E1C005B78002B00F084807B68BB617B68B3F807
:104E2C0050309BB21A46BB691344BB613B681B787C
:104E3C00DA00BB69134403F580637B613B68DB8854
:104E4C005B089BB25B009AB27B691A807A683B68FC
:104E5C001B789B0013441B887B827B8A03F04003E6
:104E6C00002B1BD07A683B681B789B0013441B8873
:104E7C009BB223F4E04323F070033B827A683B68D7
:104E8C001B789B001A443B8A43F07F4343F47F0317
:104E9C0043F4004343F0C0039BB213803B68DB78C0
:104EAC00012B20D07A683B681B789B0013441B882D
:104EBC009BB223F4E04323F04003BB81BB8983F016
:104ECC002003BB817A683B681B789B001A44BB8922
:104EDC0043F07F4343F47F0343F4004343F08003E8
:104EEC009BB21380BFE27A683B681B789B0013442B
:104EFC001B889BB223F4E04323F04003FB817A68C8
:104F0C003B681B789B001A44FB8943F07F4343F4B6
:104F1C007F0343F4004343F080039BB21380A2E26F
:104F2C007B683B637B68B3F850309BB21A463B6B93
:104F3C0013443B633B681B78DA003B6B134403F26E
:104F4C000443FB623B68DB885B089BB25B009AB254
:104F5C00FB6A1A807B68BB627B68B3F850309BB2EB
:104F6C001A46BB6A1344BB623B681B78DA00BB6A07
:104F7C00134403F206437B623B681B69002B12D17E
:104F8C007B6A1B889BB223F4F8439AB27B6A1A8023
:104F9C007B6A1B889BB26FEA43436FEA53439AB216
:104FAC007B6A1A802FE03B681B693E2B13D83B6849
:104FBC001B695B08BB663B681B6903F00103002B94
:104FCC0002D0BB6E0133BB66BB6E9BB29B029AB226
:104FDC007B6A1A8017E03B681B695B09BB663B6800
:104FEC001B6903F01F03002B02D1BB6E013BBB6698
:104FFC00BB6E9BB29B029BB26FEA43436FEA534377
:10500C009AB27B6A1A807A683B681B789B001344BF
:10501C001B887B847B8C03F48043002B1BD07A6829
:10502C003B681B789B0013441B889BB223F4E04322
:10503C0023F070033B847A683B681B789B001A440E
:10504C003B8C43F07F4343F47F0343F4404343F0F2
:10505C0080039BB213807A683B681B789B001344D7
:10506C001B889BB223F4804323F07003FB83FB8BE0
:10507C0083F48053FB83FB8B83F40053FB837A68AC
:10508C003B681B789B001A44FB8B43F07F4343F433
:10509C007F0343F4004343F080039BB21380E2E1AF
:1050AC007A683B681B789B0013441B889BB223F4E3
:1050BC00E04323F07003A7F864307A683B681B78F0
:1050CC009B001A44B7F8643043F07F4343F47F03EA
:1050DC0043F4014343F080039BB213807B683B662F
:1050EC007B68B3F850309BB21A463B6E13443B6658
:1050FC003B681B78DA003B6E134403F58063FB6559
:10510C003B681B895B089BB25B009AB2FB6D1A80F3
:10511C007B68BB657B68B3F850309BB21A46BB6D9D
:10512C001344BB653B681B78DA00BB6D134403F278
:10513C0004437B653B685B895B089BB25B009AB25E
:10514C007B6D1A803B685B78002B40F0B1807A68ED
:10515C003B681B789B0013441B88A7F84230B7F8B8
:10516C00423003F48043002B1DD07A683B681B78D7
:10517C009B0013441B889BB223F4E04323F0700381
:10518C00A7F840307A683B681B789B001A44B7F844
:10519C00403043F07F4343F47F0343F4404343F0F8
:1051AC0080039BB213807A683B681B789B00134486
:1051BC001B88FB87FB8F03F04003002B1BD07A6806
:1051CC003B681B789B0013441B889BB223F4E04381
:1051DC0023F07003BB877A683B681B789B001A44EA
:1051EC00BB8F43F07F4343F47F0343F4004343F00E
:1051FC00C0039BB213807A683B681B789B001344F6
:10520C001B889BB223F4E04323F070037B877A68FE
:10521C003B681B789B001A447B8F43F07F4343F41D
:10522C007F0343F4004343F0C0039BB213807A68BE
:10523C003B681B789B0013441B889BB223F4804370
:10524C0023F070033B873B8F83F480533B873B8F6A
:10525C0083F400533B877A683B681B789B001A44A5
:10526C003B8F43F07F4343F47F0343F4004343F00D
:10527C0080039BB213807A683B681B789B001344B5
:10528C001B889BB223F4E04323F04003FB867A682F
:10529C003B681B789B001A44FB8E43F07F4343F41E
:1052AC007F0343F4004343F080039BB21380DAE0A6
:1052BC007A683B681B789B0013441B88A7F8523014
:1052CC00B7F8523003F48043002B1DD07A683B684A
:1052DC001B789B0013441B889BB223F4E04323F000
:1052EC007003A7F850307A683B681B789B001A440F
:1052FC00B7F8503043F07F4343F47F0343F440430B
:10530C0043F080039BB213807A683B681B789B0048
:10531C0013441B88A7F84E30B7F84E3003F0400307
:10532C00002B1DD07A683B681B789B0013441B88AC
:10533C009BB223F4E04323F07003A7F84C307A6857
:10534C003B681B789B001A44B7F84C3043F07F4302
:10535C0043F47F0343F4004343F0C0039BB2138038
:10536C007A683B681B789B0013441B889BB223F420
:10537C00E04323F07003A7F84A307A683B681B7847
:10538C009B001A44B7F84A3043F07F4343F47F0341
:10539C0043F4404343F080039BB213803B68DB78BB
:1053AC00012B24D07A683B681B789B0013441B8824
:1053BC009BB223F4E04323F04003A7F84630B7F840
:1053CC00463083F02003A7F846307A683B681B7898
:1053DC009B001A44B7F8463043F07F4343F47F03F5
:1053EC0043F4004343F080039BB213801DE07A68C2
:1053FC003B681B789B0013441B889BB223F4E0434F
:10540C0023F04003A7F848307A683B681B789B0070
:10541C001A44B7F8483043F07F4343F47F0343F416
:10542C00004343F080039BB213807A683B681B787F
:10543C009B0013441B889BB223F4804323F070031E
:10544C00A7F844307A683B681B789B001A44B7F87D
:10545C00443043F07F4343F47F0343F4004343F071
:10546C0080039BB2138097F86F3018467437BD4693
:10547C005DF8047B704700BF80B5A0B000AF7860CA
:10548C0039603B685B78012B40F0A1813B689A69DD
:10549C003B681B699A4209D93B681B69BB673B682F
:1054AC009A69BB6FD21A3B689A6105E03B689B69AD
:1054BC00BB673B6800229A613B681B7B002B1FD1AA
:1054CC003B6859693B68DA88BB6F9BB2786800F01F
:1054DC0028FC7B683B617B68B3F850309BB21A4662
:1054EC003B6913443B613B681B78DA003B6913440E
:1054FC0003F20243FB60BB6F9AB2FB681A8041E176
:10550C007A683B681B789B0013441B889BB203F0A2
:10551C004003002B76D07B687B623B685B78002B6A
:10552C0053D17B68FB617B68B3F850309BB21A4651
:10553C00FB691344FB613B681B78DA00FB6913447D
:10554C0003F20643BB61BB6F002B12D1BB691B88F6
:10555C009BB223F4F8439AB2BB691A80BB691B88CF
:10556C009BB26FEA43436FEA53439AB2BB691A800A
:10557C0043E0BB6F3E2B11D8BB6F5B087B67BB6FE7
:10558C0003F00103002B02D07B6F01337B677B6F31
:10559C009BB29B029AB2BB691A802EE0BB6F5B096F
:1055AC007B67BB6F03F01F03002B02D17B6F013BAA
:1055BC007B677B6F9BB29B029BB26FEA43436FEAA4
:1055CC0053439AB2BB691A8017E03B685B78012B96
:1055DC0013D17B68B3F850309BB21A467B6A1344E4
:1055EC007B623B681B78DA007B6A134403F2064348
:1055FC003B62BB6F9AB23B6A1A803B685B89A7F827
:10560C007E3075E03B685B78002B53D17B68FB6286
:10561C007B68B3F850309BB21A46FB6A1344FB62AA
:10562C003B681B78DA00FB6A134403F20243BB624B
:10563C00BB6F002B12D1BB6A1B889BB223F4F843BF
:10564C009AB2BB6A1A80BB6A1B889BB26FEA43434F
:10565C006FEA53439AB2BB6A1A8045E0BB6F3E2B8C
:10566C0011D8BB6F5B083B67BB6F03F00103002BCA
:10567C0002D03B6F01333B673B6F9BB29B029AB2EC
:10568C00BB6A1A8030E0BB6F5B093B67BB6F03F0F2
:10569C001F03002B02D13B6F013B3B673B6F9BB25F
:1056AC009B029BB26FEA43436FEA53439AB2BB6AC5
:1056BC001A8019E03B685B78012B15D17B687B6302
:1056CC007B68B3F850309BB21A467B6B13447B63F8
:1056DC003B681B78DA007B6B134403F202433B6399
:1056EC00BB6F9AB23B6B1A803B681B89A7F87E3064
:1056FC003B685969BB6F9BB2B7F87E20786800F0A5
:10570C0010FB3B685B78002B1CD17A683B681B78DC
:10571C009B0013441B889BB223F4E04323F07003DB
:10572C00BB827A683B681B789B001A44BB8A43F0A7
:10573C007F4343F47F0343F4004343F0C0039BB225
:10574C0013801FE03B685B78012B1BD17A683B68A8
:10575C001B789B0013441B889BB223F4E04323F07B
:10576C007003FB827A683B681B789B001A44FB8AA7
:10577C0043F07F4343F47F0343F4404343F08003FF
:10578C009BB213807A683B681B789B0013441B8880
:10579C009BB223F4E04323F040037B817B8983F0AD
:1057AC0010037B817B8983F020037B817A683B68C3
:1057BC001B789B001A447B8943F07F4343F47F039F
:1057CC0043F4004343F080039BB2138075E13B68C4
:1057DC009A693B681B699A4209D93B681B69BB678C
:1057EC003B689A69BB6FD21A3B689A6105E03B68CB
:1057FC009B69BB673B6800229A613B681B7B002B53
:10580C0053D17B683B647B68B3F850309BB21A462B
:10581C003B6C13443B643B681B78DA003B6C1344D1
:10582C0003F20643FB63BB6F002B12D1FB6B1B888F
:10583C009BB223F4F8439AB2FB6B1A80FB6B1B8868
:10584C009BB26FEA43436FEA53439AB2FB6B1A80E5
:10585C000FE1BB6F3E2B11D8BB6F5B08FB66BB6FB8
:10586C0003F00103002B02D0FB6E0133FB66FB6ED1
:10587C009BB29B029AB2FB6B1A80FAE0BB6F5B097E
:10588C00FB66BB6F03F01F03002B02D1FB6E013BC9
:10589C00FB66FB6E9BB29B029BB26FEA43436FEAC3
:1058AC0053439AB2FB6B1A80E3E03B685B78002BA6
:1058BC0053D17B68BB657B68B3F850309BB21A46FA
:1058CC00BB6D1344BB653B681B78DA00BB6D13449E
:1058DC0003F202437B65BB6F002B12D17B6D1B88DF
:1058EC009BB223F4F8439AB27B6D1A807B6D1B88B4
:1058FC009BB26FEA43436FEA53439AB27B6D1A80B3
:10590C0045E0BB6F3E2B11D8BB6F5B08BB66BB6F12
:10591C0003F00103002B02D0BB6E0133BB66BB6EE0
:10592C009BB29B029AB27B6D1A8030E0BB6F5B0915
:10593C00BB66BB6F03F01F03002B02D1BB6E013B98
:10594C00BB66BB6E9BB29B029BB26FEA43436FEA92
:10595C0053439AB27B6D1A8019E03B685B78012B3C
:10596C0015D17B683B667B68B3F850309BB21A4606
:10597C003B6E13443B663B681B78DA003B6E13446A
:10598C0003F20243FB65BB6F9AB2FB6D1A807B6816
:10599C003B653B685B78002B53D17B68BB647B68B1
:1059AC00B3F850309BB21A46BB6C1344BB643B68D3
:1059BC001B78DA00BB6C134403F206437B64BB6FA9
:1059CC00002B12D17B6C1B889BB223F4F8439AB248
:1059DC007B6C1A807B6C1B889BB26FEA43436FEA2B
:1059EC0053439AB27B6C1A8043E0BB6F3E2B11D8A9
:1059FC00BB6F5B087B66BB6F03F00103002B02D00F
:105A0C007B6E01337B667B6E9BB29B029AB27B6C86
:105A1C001A802EE0BB6F5B097B66BB6F03F01F0324
:105A2C00002B02D17B6E013B7B667B6E9BB29B0293
:105A3C009BB26FEA43436FEA53439AB27B6C1A8072
:105A4C0017E03B685B78012B13D17B68B3F85030BF
:105A5C009BB21A463B6D13443B653B681B78DA00DE
:105A6C003B6D134403F20643FB64BB6F9AB2FB6CB1
:105A7C001A807A683B681B789B0013441B889BB286
:105A8C0023F4804323F070037B877B8F83F4805354
:105A9C007B877B8F83F400537B877A683B681B780A
:105AAC009B001A447B8F43F07F4343F47F0343F402
:105ABC00004343F080039BB21380002318468037C9
:105ACC00BD4680BD80B485B000AF786039603B685E
